:020000040800F2
:10000000D096002061020008991500089515000897
:1000100097150008890800088118000800000000F2
:10002000000000000000000000000000A101000826
:10003000B109000800000000FD0100089B15000840
:100040007B0200087B0200087B0200087B0200089C
:100050007B0200087B0200087B0200087B0200088C
:100060007B0200087B0200087B0200087B0200087C
:100070007B0200087B0200087B0200087B0200086C
:100080007B0200087B0200087B0200087B0200085C
:100090007B0200087B0200087B0200087B0200084C
:1000A0007B0200087B0200087B0200087B0200083C
:1000B0007B0200087B0200087B0200087B0200082C
:1000C0007B0200087B0200087B0200087B0200081C
:1000D0007B0200086D1800087B0200087B02000804
:1000E0007B0200087B0200087B0200087B020008FC
:1000F0007B0200087B0200087B0200087B020008EC
:100100007B0200087B0200087B0200087B020008DB
:100110007B0200087B0200087B0200087B020008CB
:100120007B0200087B0200087B0200087B020008BB
:100130007B0200087B0200087B0200087B020008AB
:100140007B0200087B0200087B0200087B0200089B
:100150007B0200087B0200087B0200087B0200088B
:100160007B0200087B0200087B0200087B0200087B
:100170007B0200087B0200087B02000800000000F0
:100180007B0200087B020008DFF810D000F0C4FA00
:100190000048004731220008AFF30080D0960020CD
:1001A0002C4B19680868B0E8F04F80F30988BFF35A
:1001B0006F8F4FF0000080F311887047000000003F
:1001C00008480068006880F308884FF0000080F35A
:1001D000148862B661B6BFF34F8FBFF36F8F00DF35
:1001E00000BF00BF08ED00E0DFF80C00016841F43B
:1001F00070010160704700BF88ED00E0EFF30980F7
:10020000BFF36F8F134B1A681EF0100F08BF20ED5D
:10021000108A20E9F04F106009B44FF0500080F3CD
:100220001188BFF34F8FBFF36F8F02F079FF4FF04C
:10023000000080F3118809BC19680868B0E8F04F25
:100240001EF0100F08BFB0EC108A80F30988BFF3CE
:100250006F8F704710000020EFF30580704700009B
:100260000648804706480047FEE7FEE7FEE7FEE750
:10027000FEE7FEE7FEE7FEE7FEE7FEE74D160008B5
:10028000890100082DE9F05F0546002092469B4653
:1002900088460646814640241BE02846414647469C
:1002A000224600F070F853465A46C01A914110D3C6
:1002B00011461846224600F057F82D1A67EB010840
:1002C0004F4622460120002100F04EF817EB0009AE
:1002D0004E41201EA4F10104DFDC484631462A4687
:1002E0004346BDE8F09F40EA01039B0703D009E0C5
:1002F00008C9121F08C0042AFAD203E011F8013B12
:1003000000F8013B521EF9D27047D2B201E000F86A
:10031000012B491EFBD270470022F6E710B51346A9
:100320000A4604461946FFF7F0FF204610BD421C5E
:1003300010F8011B0029FBD1801A704730B50B461D
:10034000014600202022012409E021FA02F59D4205
:1003500005D303FA02F5491B04FA02F52844151ED9
:10036000A2F10102F1DC30BD202A04DB203A00FAC0
:1003700002F1002070479140C2F1200320FA03F3FC
:10038000194390407047202A04DB203A21FA02F0FA
:100390000021704721FA02F3D040C2F120029140BF
:1003A0000843194670472DE9FE4F804681EA030055
:1003B000C00F0C46009021F0004123F00045B8EB3F
:1003C0000200A94105D24046214690461C460B46F4
:1003D000024623F00040104347D0270DC7F30A0020
:1003E000C3F30A510290401A019040286BDAC3F31C
:1003F000130040F4801B0098924620B10023D2EBFA
:10040000030A63EB0B0B01985946C0F140025046BA
:10041000FFF7AAFF06460D4650465946019A00F0DE
:100420008DF910EB08006141002487EA115284EA3B
:10043000E7731A4340D0009A62B3019A012A4FEA47
:10044000075215DC001B61EB02014FF0004202EA8B
:100450000752CDE90042001C41F5801132462B467F
:1004600000F08DF903B0BDE8F08F40462146F9E772
:10047000001B61EB0201001C41F5801300185B4179
:100480002018A2F5001747EB030140EAD570B61912
:100490006D4111E06D084FEA360645EAC0754FEA36
:1004A0000752001B61EB0201001C41F58011490855
:1004B0004FEA30000019514132462B4603B0BDE8E7
:1004C000F04F00F04DB90098012240000023D0EB1E
:1004D000020263EBE073009821464FEAE074B8EB48
:1004E000000061EB0401E9E783F000435BE781F082
:1004F000004158E72DE9FE4F81EA030404F000446F
:1005000021F0004100944FF0000B23F0004350EA2B
:1005100001045ED052EA03045BD0C3F30A54C1F372
:100520000A552C44A4F2F3340194A0FB0254C1F305
:10053000130141F48011C3F3130343F4801301FB4F
:10054000024400FB034E840A970A44EA815447EAB6
:100550008357A4FB076802958D0A05FB07854FEAC0
:10056000932C04FB0C542705029D4FEA065847EADA
:100570001637B5EB08056EEB070C870E920E47EAAF
:10058000811742EA8312A7FB0201B6EB0B0164EB71
:1005900000042B0D43EA0C335E1844EB1C50DA4682
:1005A0005146E7FB0201C5F313044FEA0B3343EA5C
:1005B00014534FEA0432019C43EA0603A4F10C04ED
:1005C0000294009CCDE900B400F0D9F803B0BDE876
:1005D000F08F00200146F9E72DE9F04D81EA030490
:1005E00004F0004B21F0004514464FF0000A23F0C0
:1005F000004150EA050220D054EA01021DD0C5F3A3
:100600000A570246C5F31303C1F31300C1F30A5698
:1006100040F4801543F48013A7EB0608101BD64660
:1006200008F2FD3873EB050002D308F1010801E080
:1006300092185B41B8F1000F03DA00200146BDE8D3
:10064000F08D00204FF48011064684460EE0171B03
:1006500073EB050705D3121B63EB050306434CEA56
:10066000010C49084FEA300092185B4150EA01073B
:10067000EDD152EA030012D082EA040083EA0501B8
:10068000084305D0101BAB4106D20122002306E02F
:1006900000224FF0004302E06FF0010253101AEB0A
:1006A00006004CEB085110EB0A0041EB0B01BDE8D2
:1006B000F04D00F055B8C1F30A52C1F3130140F2F6
:1006C000FF3341F480119A4202DA0020014670475C
:1006D00040F233439A42A2F2334202DC5242FFF725
:1006E00052BEFFF741BE000030B5041E71F1000498
:1006F00004DB4FF00044404264EB0101141E73F12F
:10070000000405DB1C464FF00043524263EB040338
:10071000994208BF904230BD064C074D06E0E068A4
:1007200040F0010394E8070098471034AC42F6D338
:10073000FFF72EFDB03D0008D03D0008202A06DB63
:10074000CB17203A41FA02F043EAE07306E041FA9F
:1007500002F3D040C2F1200291400843194670478D
:1007600010B5141E73F1000408DA401C41F10001B9
:1007700092185B411A4301D120F0010010BD2DE910
:10078000F04D92469B4611B1B1FA81F202E0B0FA07
:1007900080F220329046FFF7E7FD04460F4640EA1C
:1007A0000A0041EA0B0153465A46084313D011464A
:1007B00053EA010019D0C8F140025046FFF7E3FDAB
:1007C00005460E46504659464246FFF7CDFD0843C2
:1007D00005D0012004E020463946BDE8F08D002018
:1007E000054346EAE0762C4337430A986305E40A5A
:1007F000A0EB08000022FD0A44EA47540A3002D563
:1008000000200146E9E7010510196941DDE90845C5
:1008100000196941BDE8F04DA2E700007CB502F087
:10082000F9F9184C0025D4E90401CDE90001228929
:10083000D4E90001E36802F0D3FFA061012801D0F0
:1008400000F0B8F80F4C1C342069009094E80F00B9
:1008500003F006FA606148B102F0FEFF024600951F
:1008600000230121606903F053FA01E000F0A2F8CF
:100870000448001F006802F035FBBDE87C4002F030
:10088000E9B900009C000020FEE7000010B50C4C08
:100890000A480C2120604FF4E13060600020A06025
:1008A000E060C4E90401A061E061204600F0A8FD19
:1008B0002068C16841F02001C16010BD00100140F6
:1008C000248E002038B5144900200A6842F48002C2
:1008D0000A600968124C01F4800100910F492160FF
:1008E0004FF0006161604021C4E902100901C4E9D0
:1008F0000410A061E06103212062C4E90901E06203
:100900002063204600F09AF8204600F0C9F8A4F1D0
:1009100048008463A06338BD30380240B8640240A8
:100920006C8E002010B5FFF7B1FFBDE81040FFF757
:10093000C9BF000001681823CAB2103AB2FBF3F233
:10094000054B6FF30901032A9B5CC36500D9091DA0
:100950008165084670470000903D000810B50146CB
:1009600000208B698A6A4FF0C07453B1B3F5005F01
:1009700015D072B1012A0CD0022A0AD0032A09D15B
:1009800004E01AB1012A06D0022A03D1C96AC901BA
:1009900000D5012010BDC96AA142FAD010BD002ABD
:1009A000F7D0012AF2D0022AF3D0032AF3D010BDE7
:1009B00070470000054C4FF4FA75206880F4007011
:1009C0002060284600F0D6F8F7E700001414024033
:1009D00070B5184886B0016841F0200101600168D7
:1009E00001F020010591016841F0200101600068DB
:1009F000022100F02000059001204402CDE90040D2
:100A0000CDE902010C4E6946304600F0C5F865009C
:100A100069463046009500F0BFF801222146304675
:100A200000F0B2F901222946304600F0ADF906B0D7
:100A300070BD0000303802400014024070B5040060
:100A40002BD094F83500022826D02068016821F0C8
:100A5000010101602068002505602068456020686C
:100A600085602068C5602068056121682120486193
:100A70002046FFF75FFFE56325646564A564E564D0
:100A8000256594F85C203F2191408160656584F87C
:100A9000355084F83450002070BD012070BD000036
:100AA0002DE9F041044600F07BF906465CB10220D6
:100AB00084F83500002584F834502068016821F05E
:100AC000010101600DE00120BDE8F08100F068F94E
:100AD000801B052805D920206065032084F8350097
:100AE000F2E720680068C007F0D12268116820484A
:100AF0000140D4E901031843D4E9033633431843D2
:100B000063691843A3691843E3691843236A1843C8
:100B10000843616A042903D1D4E90B13194308433C
:100B2000106020684069666A20F0070130460E4375
:100B3000012704280CD1A06A0643E06A40B1204690
:100B4000FFF70CFF20B14020606584F83570BAE7EC
:100B5000206846612046FFF7EDFE94F85C203F21B7
:100B600091408160656584F835700020ACE7000035
:100B70003F8010F070B5044600F012F90546601C85
:100B800002D004480078044400F00AF9401BA04257
:100B9000FAD370BD040000202DE9F84FDFF8BCA1A6
:100BA0000022012503264FF00F090AF1040BAAF1D8
:100BB000040E00BF0B6805FA02F42340A34270D173
:100BC0000F7907F00307012F01D0022F16D1876894
:100BD0004FEA420806FA08FC27EA0C07D1F80CC0D5
:100BE0000CFA08FC4CEA070CC0F808C04768A74399
:100BF0000C79C4F3001494403C4344600C79E44302
:100C0000A4070AD0C4684FEA420C06FA0CF7BC43AA
:100C10008F6807FA0CF72743C7600C7904F00304C8
:100C2000022C12D1D40800EB840CDCF820405707CA
:100C3000FF0E09FA07F824EA0804D1F8108008FA30
:100C400007F848EA0408CCF8208004684FEA420C10
:100C500006FA0CF7BC430F7907F0030707FA0CF705
:100C6000274307604C6814F4403F70D03C4C276821
:100C700047F480472760246822F0030704F4804487
:100C80000094384C07EB040CDCF8084897074FEA4F
:100C9000177809FA08F7BC43334FB84202D100274E
:100CA00024E054E0314FB84201D101271EE0304F1B
:100CB000B84201D1022719E02E4FB84201D10327D3
:100CC00014E02D4FB84201D104270FE02B4FB8425A
:100CD00001D105270AE02A4FB84201D1062705E0D5
:100CE000284FB84201D1072700E0082707FA08F784
:100CF0002743CCF80878DAF800405746D1F804C00A
:100D00009C435FEACC2C00D51C433C60DBF80040E0
:100D10005F46D1F804C09C435FEA8C2C00D51C438D
:100D20003C60DEF800407746D1F804C09C435FEA9F
:100D30008C3C00D51C433C60084F083F3C68D1F810
:100D400004C09C435FEACC3C00D51C433C60521C71
:100D5000102AFFF42FAFBDE8F88F0000083C0140D7
:100D600044380240003001400000024000040240CC
:100D700000080240000C0240001002400014024033
:100D800000180240001C02400AB18161704709044A
:100D9000FBE7000001480068000C7047002004E0F9
:100DA000014880687047000004000020094810B521
:100DB000016841F400710160016841F480610160E3
:100DC000032000F057F80F2000F006F800F024F898
:100DD000002010BD003C024070B50D4D04464FF49C
:100DE0007A712878B1FBF0F00A490968B1FBF0F09C
:100DF00000F0F2FA48B9102C07D200222146501E0A
:100E000000F018F800206C6070BD012070BD00007B
:100E100004000020000000207047002809DB00F0DB
:100E20001F02012191404009800000F1E020C0F83C
:100E300000117047F0B40E4B1B680C46C3F302233D
:100E4000C3F10705042D00D90425191D072901D276
:100E5000002300E0DB1E012606FA05F1491E2140B1
:100E600099409E40761E16403143F0BC00F03EBDD6
:100E70000CED00E0064900F0070208684FF6FF039A
:100E8000184040EA0220034A1043086070470000FF
:100E90000CED00E00000FA052DE9F0470E460500D4
:100EA00065D0DFF81481D8F80000F7B200F0070031
:100EB000B04207D288F80070D8F8000000F00700B0
:100EC000B04254D128683D4C810712D5400703D564
:100ED000206840F4E05020602878000703D520689F
:100EE00040F4604020602068A96820F0F0000843CA
:100EF00020602878C0072DD030496868083901285B
:100F000012D0022813D0032811D0096889070029BC
:100F10002DDA216821F0030101432160FFF740FF32
:100F2000814641F2883A0EE009688903EFE70968D3
:100F30008901ECE7FFF734FFA0EB0901514502D925
:100F40000320BDE8F0872068696800F00C00B0EB72
:100F5000810FEFD1D8F80010404601F00701B142EF
:100F600007D90770006800F00700B04201D00120E7
:100F7000E7E72878400705D52068E96820F4E050C5
:100F8000084320602878000706D52068296920F4E6
:100F9000604040EAC100206000F038F82168084A4B
:100FA000C1F30311515CC840064908600648006857
:100FB000FFF712FF0020C4E7003C0240083802405F
:100FC000783D000800000020080000200448054982
:100FD00000680968044AC1F38221515CC840704727
:100FE0000000002008380240883D000804480549F8
:100FF00000680968044AC1F34231515CC840704737
:101000000000002008380240883D0008154810B54F
:10101000006810F00C02144813D04110042A0FD0BD
:10102000082A0ED10F4C241F2268236802F03F02C9
:101030005B0207D52068C0F38810A0FB010106E021
:10104000084610BD2168C1F38811A1FB00010023EF
:10105000FFF718F92168C1F30141491C4900B0FBB1
:10106000F1F010BD083802400024F4002DE9F84FDB
:1010700004006ED02078DFF84C93C007A9F1040576
:101080004AD009F104000168C1F38101012908D0A7
:101090000068C0F3810002280AD1D9F8000040029C
:1010A00006D52868800337D560680028E1D033E092
:1010B0006068B0F5803F10D0B0F5A02F286810D040
:1010C00020F480302860286820F480202860606840
:1010D000A8B1FFF765FE06460DE0286840F48030B1
:1010E000F4E740F480202860F7E700BFFFF758FEE0
:1010F000801B642873D828688003F7D50CE0FFF7BD
:101100004FFE064605E000BFFFF74AFE801B64283D
:10111000F0D828688003F7D42078DFF8AC82800705
:101120004FF0000A3ED5A748001D016811F00C0FD2
:1011300008D00068C0F3810002280BD1D9F8000064
:10114000400207D42868800716D5E068012800D13E
:1011500012E033E1E068B8B10120C8F80000FFF701
:101160001FFE064605E000BFFFF71AFE801B02289F
:10117000C0D828688007F7D52868216920F0F800D2
:1011800040EAC10028600DE0C8F800A0FFF708FEA3
:10119000064604E0FFF704FE801B02281FD82868DB
:1011A0008007F7D42078000722D5864F87486169E9
:1011B000703771B101210160FFF7F2FD064604E0CE
:1011C000FFF7EEFD801B022809D838688007F7D5A5
:1011D0000EE0C0F800A0FFF7E3FD064605E082E060
:1011E000FFF7DEFD801B02287DD838688007F7D422
:1011F0002078400768D5DFF8CCB100270BF13C0B15
:10120000DBF80000C0000BD4DBF8001041F0805187
:10121000CBF80010DBF80000012700F080500090B0
:101220006B4E3068C00510D4306840F48070306078
:10123000FFF7B6FD009005E0FFF7B2FD0099401AF8
:10124000022850D83068C005F6D55E4EA0686C36CE
:1012500001280FD00528306810D020F00100306040
:10126000306820F004003060A068B8B1FFF798FD46
:1012700000900FE0306840F00100F4E740F0040017
:101280003060F7E7FFF78CFD0099411A41F2883092
:10129000814266D830688007F4D50EE0FFF780FD04
:1012A000009007E0FFF77CFD0099411A41F2883079
:1012B000814256D830688007F4D42FB1DBF8001093
:1012C00021F08051CBF80010A069C8B33D49091D39
:1012D0000968C1F3810102294AD00228504607D08B
:1012E000C8F8600000E03CE0FFF75AFD04463BE030
:1012F0004746C8F86000FFF753FD064605E000BF0B
:10130000FFF74EFD801B02282BD828688001F7D4F8
:10131000D4E907010843A16A2E4A490802EB0141BA
:10132000626A41EA8211084394F82C1040EA016194
:10133000C9F8001001203866FFF732FD044606E0C8
:101340003EE000BFFFF72CFD001B022809D82868EB
:101350008001F7D534E000BFFFF722FD001B022813
:1013600002D90320BDE8F88F28688001F4D427E073
:101370000128F7D0D9F80000E26900F48001914219
:101380001CD1226A00F03F01914217D147F6C0718B
:10139000626A0140B1EB821F10D1A26A4FF0FF33A5
:1013A00000F4403103EB5202B1EB024F06D194F846
:1013B0002C1000F07060B0EB016F01D00120D1E77C
:1013C0000020CFE70438024000004742800E474229
:1013D000007000400000FFFF10B5401EB0F1807F9C
:1013E00001D3012010BD4FF0E02460610F21601790
:1013F00000F07CFA0020A06107202061002010BDD1
:1014000070B5040004D094F84100002510B106E046
:10141000012070BD84F84050204600F023F82420BD
:1014200084F841002068C16821F40051C160204661
:1014300000F05CF92068016921F4904101612068A5
:10144000416921F02A0141612068C16841F40051DD
:10145000C1606564202084F8410084F8420065631F
:10146000002070BD30B500681F4987B0884239D16F
:101470001E48016841F010010160006800F0100092
:1014800005901A481438016841F0010101600168B3
:1014900001F001010591016841F00101016000685E
:1014A000072400F0010005904FF400700090022026
:1014B0000190012002900320CDE903040C4D694600
:1014C0002846FFF769FB28150090694604942846D2
:1014D000FFF762FB012200212520FFF7ABFC25204E
:1014E000FFF79BFC07B030BD0010014044380240BC
:1014F000000002402DE9F843044690F84100984668
:1015000016460D46202802D00220BDE8F88385B19A
:101510007EB100206064212084F84100FFF740FC88
:10152000A6848146E684A0682027B0F5805F02D0BB
:1015300003E00120E9E7206910B12E4600250EE006
:1015400000260CE08021204600F056F9A8B9C6B16B
:1015500016F8010B21684860E08C401EE084E08CA6
:101560004B464FF00002CDF800800028EAD14FF042
:101570004001204600F040F940B184F8417003205A
:10158000C3E735F8020BC0F30800E3E784F84170C5
:101590000020BAE7FEE7FEE7704710B502F04EF90B
:1015A000012803D0BDE8104001F062BE10BD00006C
:1015B00030B5234893B00025016841F080510160A7
:1015C000006800F0805011901E48016841F480418D
:1015D00001600068022400F4804011900120009016
:1015E000000401908001CDE90640082008904FF4E6
:1015F000A870CDE9090407200B906846FFF736FD77
:1016000008B1FFF7D7F90CA90F2081E831004FF49A
:10161000A0504FF48054CDE90F0405210CA8FFF72A
:101620003BFC08B1FFF7C6F9FFF7B4FBA04204D9B1
:101630000548016841F48071016013B030BD0000BD
:101640004038024000700040003C024002480168FF
:1016500041F470010160704788ED00E01CB5094954
:101660000120CDE900010023802207A10A4802F0F1
:10167000B7F8012801D001201CBD01F0DBFC0020DF
:101680001CBD0000980000204170705461736B43D2
:1016900072656174650000001D08000801680C3166
:1016A00051E8002F22F4907241E80023002BF5D17D
:1016B0000168143151E8002F22F0010241E80023B3
:1016C000002BF5D1016B012909D101680C3151E8DA
:1016D000002F22F0100241E80023002BF5D1202139
:1016E00080F84210002101637047000070B5044685
:1016F00000680169E26821F44051114301612169E8
:10170000A068E26908436169114308432168CA6817
:1017100049F20C639A430243CA6020684169A26996
:1017200021F440711143416131492068884202D05F
:101730003049884202D1FFF759FC01E0FFF746FC2F
:10174000E2690023192164253226B2F5004F626850
:1017500028D0A0FB0101930F9200FEF793FD0146F4
:10176000B0FBF5F06FF01802504301EB800006EB80
:101770000010B0FBF5F000F0F002B1FBF5F002EB69
:101780000012B1FBF5F06FF01803584301EB800035
:1017900006EB0010B0FBF5F000F00F0021681044DC
:1017A000886070BDA0FB010192185B41FEF76AFDE5
:1017B0000146B0FBF5F00201B1FBF5F06FF0180344
:1017C000584301EB800006EBC000B0FBF5F000F0E1
:1017D000F80002EB4002B1FBF5F0584301EB80004A
:1017E00006EBC000B0FBF5F000F00700D6E7000004
:1017F00000100140001401402DE9F84398461746B7
:101800000D460446089E24E0701C22D0FFF7C8FA5B
:10181000A0EB0800B0421AD8CEB12068C1684907D1
:1018200017D5802D15D0402D13D00168C943090765
:101830000FD401680025406800902046FFF72EFF76
:101840000820606484F840500120BDE8F88303203C
:10185000FBE72068006835EA000004D00020B842A9
:10186000D2D00020F1E70120F9E70000034800682A
:101870000168C943890600D440687047248E00205F
:10188000FEE7000000244FF4FA752146641C03A013
:1018900000F09CFC284601F0FFFAF6E76164633A29
:1018A0002025640D0A0000000248016881F480616F
:1018B00001607047141402407CB50C001D461646AA
:1018C000014601D0601E00E00020CDE90010064B6B
:1018D0006A462946304600F0EBF8002C02D0009A08
:1018E000002111707CBD0000B72100080907090E16
:1018F000002804DB00F1E02080F80014704700F0BD
:101900000F0000F1E02080F8141D704702E008C8C5
:10191000121F08C1002AFAD170477047002001E069
:1019200001C1121F002AFBD1704700002DE9FF5FA3
:1019300082B00021DDE90430020DDDF840B0034340
:1019400018D044F61050A2F2FF32424315141198F9
:1019500001281FD0A5EB0B00401C5FEA000A4FF0E6
:1019600000064E4FDFF83891B046504615D5CAF103
:10197000000413E0119801244AA3012801D16FEA61
:101980000B010298119AC0E90031C0E9024206B089
:10199000BDE8F09FCBF10000DFE704460021404A9C
:1019A000491842EB0450CDE9001012E0E00707D0DF
:1019B00032463B4640464946FEF79CFD80468946F6
:1019C00032463B4610461946FEF794FD06460F4642
:1019D0006410002CEAD1DDE90401DDE90023BAF14D
:1019E000000F06DAFEF786FD42464B46FEF782FD03
:1019F00005E0FEF7F1FD42464B46FEF7EDFD0446DD
:101A00000E460022284BFEF76FFE03D84FF0FF3042
:101A1000014607E00022254B20463146FEF7C3FC75
:101A2000FEF749FE102409E0002C0ADB0A220023FD
:101A3000FEF728FC039B30321A55641E50EA01025F
:101A4000F2D1641C039AC4F111031444119A012ABF
:101A500003D0012208430DD10AE0084304D000203E
:101A60004FF0110B119072E7A3EB0B056D1E0DE00B
:101A70005B4504DD4FF0000205F1010504E003DAE7
:101A80004FF00002A5F10105002AECD0029811994F
:101A9000C0E90231C0E9004579E7000000001440C8
:101AA0000000F03F300000000000F0430000E03F85
:101AB0002DE9FF4F95B09A46884606460025EEE18F
:101AC000252877D100242746F94A0121039400E014
:101AD000044316F8013F203B01FA03F01042F7D10E
:101AE00030782A2811D06FF02F033078A0F130021F
:101AF000092A16D8039A44F0020402EB820203EB8F
:101B000042021044761C0390EFE758F8042B03922E
:101B1000002A03DA504244F40054039044F00204D3
:101B2000761C30782E2816D116F8010F44F00404E4
:101B30002A280DD06FF02F023078A0F13003092B46
:101B400009D807EB870302EB4303C718761CF3E7BA
:101B500058F8047B761C30786C280FD006DC4C28B3
:101B600017D068280DD06A2814D104E0742810D04A
:101B70007A280FD10DE044F400140AE044F48014F4
:101B800001E044F440147278824202D104F58014DA
:101B9000761C761C307866280BD013DC582877D05A
:101BA00009DC002875D04528F6D04628F4D047280F
:101BB0001AD193E118E0632835D0642879D06528DC
:101BC00012D18BE1702873D008DC6728F1D0692826
:101BD0006FD06E280DD06F2806D1ACE073282CD0C2
:101BE000752874D0782853D05246179990476D1CA9
:101BF00054E1C4F30250022809D003280DD0D8F8CC
:101C0000001004280DD00D6008F1040846E1D8F852
:101C10000010EA17C1E90052F6E7D8F800100D806D
:101C2000F2E70D70F0E718F8041B8DF800100020A3
:101C30008DF80100EB46012003E058F804BB4FF09B
:101C4000FF3061074FF0000102D40DE009F10101FE
:101C50008946B9420FDA8145F8DB1BF809100029E3
:101C6000F4D108E009F1010189468142FADB1BF851
:101C700009100029F6D103985346A0EB0907214625
:101C80003846179A00F080FA284400EB090507E06F
:101C900044E008E10DE01BF8010B5246179990470C
:101CA000B9F10109F7D2534621463846179AF2E0B6
:101CB00039E00A21C4F302524FF0000B0091022ACE
:101CC00006D058F8040BC117032A09D00AE023E014
:101CD00008F1070020F00702F2E80201904605E053
:101CE00000B2C117042A01D140B2C117002906DA97
:101CF0000A460021404261EB02012D2202E022054A
:101D000004D52B228DF80420012203E0E20701D044
:101D10002022F7E7914657E00A2100E010214FF01A
:101D2000000B00910BE010214FF0000B44F0040475
:101D30000827009103E008204FF0000B0090C4F347
:101D40000252022A05D058F8040B0021032A08D0B9
:101D500008E008F1070020F00702F2E802019046CF
:101D600003E080B2042A00D1C0B24FF0000922077C
:101D70002AD53278702A07D0DDF800C08CF0100C1C
:101D80005CEA0B0C05D00EE040228DF80420012205
:101D900008E050EA010306D030238DF804308DF8B6
:101DA000052002229146009B83F0080353EA0B03AF
:101DB0000AD150EA010201D1620705D530228DF81F
:101DC00004204FF001097F1E3278582A04D039A22E
:101DD0000C920CAA02920BE03BA2F9E75B46009A38
:101DE000FEF750FA0C9B9B5C029A521E02921370F3
:101DF00050EA0102F2D1029804A9081A00F1200B5E
:101E0000600702D524F4803400E001275F4502DD3D
:101E1000A7EB0B0000E0002000EB0B010090039803
:101E20004944401A0390E00306D453462146179ACA
:101E3000039800F0A9F90544002706E001A85246DE
:101E4000C05D179990476D1C7F1C4F45F6DBE00382
:101E50000CD553462146179A039800F095F905448E
:101E600004E030205246179990476D1C0099481E97
:101E700000900029F5DC08E00298029952460078AB
:101E8000491C0291179990476D1CBBF10001ABF101
:101E9000010BF1DC5BE100F065F90544761C30785C
:101EA00000287FF40DAE19B02846BDE8F08F000081
:101EB0000928010030313233343536373839616220
:101EC00063646566000000003031323334353637E4
:101ED000383941424344454600000000600700D4C1
:101EE000062708F1070020F00700F0E802238046EB
:101EF00003F0004C5FEA0C0001D097A009E0200538
:101F000001D596A005E0E00701D095A001E0AFF271
:101F10004C001390307823F0004365280CD006DC89
:101F2000452809D046281DD047287FD13BE06628A8
:101F300018D067287AD136E00021112F01DB11205B
:101F400000E0781CCDE9000104A90CA8FFF7EEFC25
:101F5000DDE90D010C9A4FF0000B07F10109109219
:101F600000914EE04FF000400097CDE9011004A928
:101F70000CA8FFF7DBFCDDE90D020C9B0F994FF07D
:101F8000000B91461093009211B9791C00EB0109E6
:101F9000B7EB090003D4C0F1FF3B07F10109A9EB3E
:101FA0000700019042E0012F00DA01270021112FE4
:101FB00001DD112000E03846CDE9000104A90CA89C
:101FC000FFF7B4FCDDE90D010C9A00914FF0000B16
:101FD000B946109221070FD4009A4A4503DA914678
:101FE00001E0A9F10109B9F1010F05DD109AA9F18C
:101FF0000101515C3029F4D0B84202DA10F1040F2B
:1020000003DA0121CDE9011010E0002803DC83444C
:10201000A9EB000102E0411C494500DD8946A0EB27
:102020000B00401C01904FF000400290200705D4A7
:102030000198484502DB4FF0FF30019000208DF8F9
:102040004B0002980DF14B07B0F1004F25D0022054
:102050000C902B200D90029800280CDA4042029040
:102060002D200D9007E00A210298FEF767F9303124
:10207000029007F8011D0C99481E0C900029F2DC13
:1020800002980028EFD1791E0D980870307800F082
:10209000200040F0450007F8020D11A8C01BC01D2C
:1020A00002901398007800B1012000EB090101981B
:1020B00001EBE071029801440398401A401E03901E
:1020C000E00306D453462146179A039800F05CF8C3
:1020D00005441398007818B15246179990476D1C23
:1020E000E00323D553462146179A039800F04CF895
:1020F00005441BE0BBF1000F07DB0098584504DDE9
:102100001098179910F80B0001E0179930205246EB
:10211000904701980BF1010B401E05F1010501905C
:1021200004D12E205246179990476D1CB9F1000139
:10213000A9F10109DEDC05E017F8010B52461799F9
:1021400090476D1C0299481E02900029F4DC53460A
:102150002146179A03989EE62D0000002B000000F0
:10216000200000002DE9F041044600251E461746D8
:10217000880404D405E039462020B0476D1C641E55
:10218000F9D52846BDE8F0812DE9F0410446002547
:102190001E469046C80301D5302700E0202788045A
:1021A00004D505E041463846B0476D1C641EF9D59C
:1021B0002846BDE8F0814A68002A06D00A68531C08
:1021C0000B6010704868401E486070470FB4802153
:1021D00000B5A1B023AB6846229AFFF76DFB6846B5
:1021E000FEF7A5F882B24FF6FF7369460248FFF783
:1021F00081F921B05DF814FB248E00200A490120EA
:10220000096809B1002070470849CA69002AF9D154
:102210008A69002AF6D1044A283212688968491E60
:102220008A42F0D102207047C00100201000002037
:10223000FEF7BCFDFFF7BCF9FEF7CAFBFEF772FB29
:1022400002A0FFF7C3FFFFF709FAFEE7737461729C
:1022500074696E672E2E2E0D0A0000002DE9F041E4
:10226000204C0F460546E6682168002081F855009D
:102270002068001D00F082FC38B9206890F82C100E
:1022800001208840216981432161681C15D1A7B1D3
:10229000154922684868906023688268DA6022687D
:1022A0008368121D5A602268121D82602068416195
:1022B0000868401C0860BDE8F08120683544B542DC
:1022C0004560216805D2E06BBDE8F041091D00F0D2
:1022D0007DBCA06B091D00F079FCA06A8542EAD2A2
:1022E000A562E8E710000020E80100202DE9F04198
:1022F000054600F08FFC364CA068401CA0602068AA
:10230000344F10B1606938B32CE02560A068012813
:1023100028D1002606EB860007EB800000F048FC81
:10232000761C0A2EF6D32B48C83000F041FC294811
:10233000DC3000F03DFC2748F03000F039FC264846
:1023400000F036FC2448143000F032FC22483C38BF
:10235000A0631430E06305E02068E96AC06A88423F
:1023600000D82560606A401C60622864E96A012028
:10237000226988401043206101EB810007EB800057
:102380004068A8608168E9608268291D51608160A9
:10239000E86A00EB800007EB8001696157F82010C4
:1023A000491C47F8201000F055FC606900280CD04B
:1023B0002068E96AC06A884207D208494FF0805015
:1023C0000860BFF34F8FBFF36F8FBDE8F08100004F
:1023D00010000020D0000020D401002004ED00E017
:1023E00010B500F017FC0C4C206880B90B4800F0C9
:1023F000DFFB0A48143000F0DBFB0848E0601430D3
:10240000206100221021052000F048FF2060BDE877
:10241000104000F01FBC000050000020FC01002014
:1024200030B4026C0B46002A0BD0C1681144C16065
:102430008468A14201D30168C16030BC1846FDF731
:1024400052BF30BC70472DE9F041856B17460446FA
:102450000026026C82B1C7B1E068FDF744FFE16875
:10246000206C091AE1602268914202D2A168081A20
:10247000E060022F16D017E02068A8B9A06801F02C
:102480008DFA06460020A0600EE06068FDF72BFF85
:10249000216C606808446060A168884204D32068A9
:1024A000606001E005B16D1E6D1CA5633046BDE89E
:1024B000F08110B50446006B00F0E0FB2046BDE85B
:1024C000104000F0DBBB00000A4800210269012A2D
:1024D00000D901210268D26A0AB100207047064A79
:1024E0001268012AF9D80029F7D1816AC068081A50
:1024F0007047000010000020D00000200E484FF46C
:102500000C41420706D0C01D0B4920F00700411ABC
:10251000C1F50C41094A00230144C2E9000308390E
:10252000143A21F0070111604B600B600B1AC0E9EF
:102530000013936053607047240200209000002035
:102540001F4C204E12E000BF00F064FBF068C5682D
:10255000281D00F013FBA068401EA0606068401EAC
:10256000606000F077FB2846FFF7A3FF6068002853
:10257000EAD115480068012807D914494FF0805066
:102580000860BFF34F8FBFF36F8FFFF79DFF0228E7
:10259000D7D300F0BDFDA06AE168884207D2502081
:1025A00080F31188BFF34F8FBFF36F8FFEE7FFF704
:1025B0008BFF022801D300F0B7FB01F0BBFAC0E7A4
:1025C00010000020D4010020D000002004ED00E025
:1025D0002DE9F0470D46DDE9098417468246910052
:1025E0009946089EA522206BFDF78FFE6FF0030130
:1025F000206B01EB8701084420F00707780707D01C
:10260000502080F31188BFF34F8FBFF36F8FFEE729
:1026100065B100202218295C82F83410295C11B1C0
:10262000401C0A28F6D3002084F83D000A2E07D368
:10263000502080F31188BFF34F8FBFF36F8FFEE7F9
:10264000E662201DA66400F0BEFA04F1180000F056
:10265000BAFA2461C6F10A006462A0614A46514692
:10266000384600F075FA2060B8F1000F01D0C8F8C4
:102670000040BDE8F087000030B5114900E0114688
:102680000A688242FBD34B685C18844203D14068DD
:1026900018444860084643681C18944209D1084C05
:1026A000143C2468A24209D052681A4442600A6865
:1026B00012680260814200D0086030BD0460F9E712
:1026C0009000002070B5002441600B4D00619142E4
:1026D00006D8D11A8269914206D2011D286907E005
:1026E0009A4203D2994201D3012403E0011DE86814
:1026F00000F06CFA204670BD5000002010B5044672
:1027000000F088FAA06B28B15FF0000400F0A2FA94
:10271000204610BD0124F9E7F1B500260098846C2D
:102720005CB1A16BE06B81420FD3502080F3118824
:10273000BFF34F8FBFF36F8FFEE7502080F31188F8
:10274000BFF34F8FBFF36F8FFEE7A16B814212D2B1
:1027500094F94550002269462046FFF774FE06466C
:10276000681C0AD000F01EFA854204D27F2D0FD0DB
:102770006D1C84F845503046F8BD606A0028FAD0D8
:1027800004F1240001F066F90028F4D00126F2E7F4
:10279000502080F31188BFF34F8FBFF36F8FFEE798
:1027A00070B506460D480D46C068C068C468201D57
:1027B00000F0E4F994F82800410705D52A4631468F
:1027C000204600F0BDF803E000F0FE0084F8280089
:1027D0002046216ABDE870400847000050000020F4
:1027E00070B586B03A4E6AE00098002806DADDE956
:1027F0000201019A90470098002860DB029C606902
:1028000010B1201D00F0BAF904A800F0BBF805468D
:1028100000980A2853D2DFE800F0520505282E461A
:102820000505282E94F828002A4640F0010084F877
:1028300028000198A169034601442046FFF742FFA2
:1028400040B394F82800410707D50198A1692A46AA
:102850000144204600F074F803E000F0FE0084F824
:102860002800216A2046884729E014F8280F00F044
:10287000FE00207023E094F8280040F0010084F866
:1028800028000198A06130B141192B461A46204614
:10289000FFF718FF13E0502080F31188BFF34F8F2C
:1028A000BFF36F8FFEE794F82800810703D420461A
:1028B00000F0E4F903E000F0FE0084F828000022B4
:1028C0006946306800F0AAFE00288DD106B070BDC0
:1028D00050000020F8B50D46064600F019FC684689
:1028E00000F050F80446009810B101F023F9F8BD4B
:1028F0001148ADB101690968D9B10025311B2A46DB
:10290000006800F0A7FA01F015F90028EFD10B4993
:102910004FF080500860BFF34F8FBFF36F8FF8BD4B
:10292000A642EBD801F006F921463046FFF738FF02
:10293000F8BD0125E2E700005000002004ED00E0B2
:1029400070B516460C46054604E0A869296A044499
:1029500028468847A8692346011932462846FFF7CA
:10296000B1FE0028F1D170BD0548816B096821B125
:10297000816BC9680968816270474FF0FF31FAE7DF
:10298000100000202DE9F041064600F065FF0E4CD6
:102990000546A068854214D24FF0FF3704E0C068B6
:1029A00039460068FFF7FCFEE06801680029F6D1AF
:1029B0002169C4E90310012030602846A560BDE804
:1029C000F0810020F8E7000050000020084840682F
:1029D000401C4FF0500080F3118804D0BFF34F8F9C
:1029E000BFF36F8FFEE7BFF34F8FBFF36F8FFEE72D
:1029F00064000020074CE068016841B1C068002114
:102A0000D0F80000FFF766FFFFF7EAFEF3E70121C9
:102A10000020F7E7500000202DE9F041044600F0C7
:102A2000F9F894F9455004F124060FE0A06C18B1B0
:102A30002046FFF771FE04E0606A48B1304601F0BD
:102A400009F808B100F0B0FA6D1E6DB2002DEDDC92
:102A50004FF0FF3684F8456000F0FCF800F0DAF83B
:102A600094F9445004F1100709E0206948B1384650
:102A700000F0F0FF08B100F097FA6D1E6DB2002D66
:102A8000F3DC84F84460BDE8F04100F0E3B80000F6
:102A900070B50446002600F03BFB2C4D286808B9B1
:102AA000FFF72CFD7CB304F00700C0F11000C14318
:102AB0008C423DD8211800293ADD6868814237D818
:102AC000224814300246146801E020461446626829
:102AD0008A4202D22268002AF7D12A68944227D07B
:102AE00006682268026060680836421A102A0FD908
:102AF0006018430708D0502080F31188BFF34F8F30
:102B0000BFF36F8FFEE713E042606160FFF7B4FD33
:102B100061686868401A6860AA68904200D2A8603C
:102B200041F00040606000202060E868401CE860E0
:102B300001F000F8700707D0502080F31188BFF330
:102B40004F8FBFF36F8FFEE7304670BD7C000020D3
:102B500010B5031F4FF080741C601B1F21F0010192
:102B60001960191F044B0B6014390A60091F6FF0BC
:102B7000020244380A6010BDCD290008D0E90132B4
:102B800001699A60D0E901235A604A68824201D102
:102B900082684A60002202610868401E0860086876
:102BA0007047000001488068704700001000002056
:102BB00000F108014FF0FF32C0E90112C16001616C
:102BC00000210160704700210161704730B50B683A
:102BD0005A1C02D000F1080202E0026904E0224619
:102BE000546825689D42FAD953684B6099608A60A1
:102BF000516008610168491C016030BD42684A604B
:102C000093688B6093685960916008610168491C02
:102C100001607047502080F31188BFF34F8FBFF3DE
:102C20006F8F0A494868401C486001280CD1084849
:102C3000006810F0FF0F07D0502080F31188BFF319
:102C40004F8FBFF36F8FFEE77047000064000020D6
:102C500004ED00E00849486828B1401E486001D1F1
:102C600080F311887047502080F31188BFF34F8F95
:102C7000BFF36F8FFEE700006400002070B50028EE
:102C80002AD0A0F108046068002807DB502080F3F8
:102C90001188BFF34F8FBFF36F8FFEE7216839B103
:102CA000502080F31188BFF34F8FBFF36F8FFEE783
:102CB00020F00040606000F02BFA084D6068696801
:102CC000084468602046FFF7D7FC2869401C28614B
:102CD000BDE8704000F02EBF70BD00007C000020F9
:102CE0000F4810B501684FF47A72B1FBF2F30D484A
:102CF0006FF07F448360B4FBF3F3C360B1FBF1F387
:102D00005E24B4FBF3F303614FF0E0200023036182
:102D10008361B1FBF2F1491E41610721016110BDE0
:102D200000000020640000202DE9F041324D0446EF
:102D3000E868844200D9044672B6BFF34F8FBFF3F0
:102D40006F8FFFF75BFA30B14FF0E02106220A6186
:102D5000886918B103E062B6BDE8F081A868AB6885
:102D6000661E03FB0600254E37687F0103D54FF032
:102D700000773760C01A2B69984200D9C01A4861A1
:102D800000238B610E6946F001060E6124B1BFF38A
:102D90004F8F30BFBFF36F8F62B6BFF34F8FBFF35C
:102DA0006F8F72B6BFF34F8FBFF36F8F0A610A69DF
:102DB000D2030DD58A692E69801AAA68101A401E9E
:102DC000B04201D9904200D9501E4861601E09E00E
:102DD0008869AA685443241AB4FBF2F0461C56438F
:102DE000321B4A618B6107220A61AA68521E4A613E
:102DF00000F058F9AFE700006400002004ED00E0A7
:102E000010B5FDF729FA114910280ED300F1E02082
:102E100090F8F0030A78904207D2502080F311888E
:102E2000BFF34F8FBFF36F8FFEE709480068496912
:102E300000F4E060884207D9502080F31188BFF386
:102E40004F8FBFF36F8FFEE710BD000064000020BE
:102E50000CED00E070B515460E460446FFF7DAFEAD
:102E600094F944100020491C01D184F8440094F9DD
:102E70004510491C01D184F84500FFF7EBFEA06B1B
:102E800028B92A46314604F1240000F0ABF8204668
:102E9000BDE87040FFF7C0BD10B5020014D00F4868
:102EA000406B38B1502080F31188BFF34F8FBFF3D0
:102EB0006F8FFEE700F02CF900211046FFF7CEF9E6
:102EC00000F038FE002807D105494FF08050086017
:102ED000BFF34F8FBFF36F8F10BD000010000020B5
:102EE00004ED00E070B50546FFF794FE264C05B9E9
:102EF0002568281DFFF742FE58B9E86A234A00EB0F
:102F0000800152F8211021B90121814020698843B4
:102F10002061A86A18B105F11800FFF72FFE606A5A
:102F2000401C60622068854207D1291D1848FFF7C0
:102F300065FE6068401C606004E0A068401EA06000
:102F4000FFF712FDFFF786FE2068854202D0284673
:102F5000FFF7AFFA6069002814D02068854211D1CC
:102F6000606B38B1502080F31188BFF34F8FBFF3EF
:102F70006F8FFEE707494FF080500860BFF34F8F17
:102F8000BFF36F8F70BD000010000020D000002044
:102F9000D401002004ED00E002490A6A0260C96819
:102FA000416070471000002001490120C86170474E
:102FB0001000002010B50C4650B1094909681831BD
:102FC000FFF704FE2046BDE810400121FFF746B997
:102FD000502080F31188BFF34F8FBFF36F8FFEE750
:102FE00010000020F0B40C46D0B1114943680D68C0
:102FF000EB619D680E6835620D689E6818357560D6
:103000000D6818359D60096888620168491C016077
:103010000AB14FF0FF342046F0BC1146FFF71EB94D
:10302000502080F31188BFF34F8FBFF36F8FFEE7FF
:10303000100000207CB517480025CDE900502B4634
:10304000822215A1164800F0CBFB124C2C3C012823
:1030500003D100F037FE012802D0401C11D00EE051
:10306000502080F31188BFF34F8FBFF36F8F4FF065
:10307000FF30A06201206061E56000F07FF8206B06
:103080007CBD502080F31188BFF34F8FBFF36F8F4B
:10309000FEE700003C00002049444C4500000000D1
:1030A0004125000870B5194C0546E068A16A28441E
:1030B000884207D9502080F31188BFF34F8FBFF3A8
:1030C0006F8FFEE7E068A16A284488420AD1606BEE
:1030D00060B19DB1FFF79EFDA069401CA061FFF7A4
:1030E000B9FD6D1EE0682844E06070BD502080F39B
:1030F0001188BFF34F8FBFF36F8FFEE7502080F32F
:103100001188BFF34F8FBFF36F8FFEE710000020D1
:103110000248416B491C41637047000010000020C9
:103120001448416B11B10121C16170470021C16197
:103130000169B1FA81F1C1F11F0101EB81020E4970
:1031400051F822306BB101EB820101F108034A68AA
:1031500052684A609A4201D152684A60D16801605F
:103160007047502080F31188BFF34F8FBFF36F8FEC
:10317000FEE7000010000020D00000201CB53748FA
:103180000168374A914207D1502080F31188BFF37C
:103190004F8FBFF36F8FFEE700683149491E8842A9
:1031A00007D1502080F31188BFF34F8FBFF36F8F8B
:1031B000FEE72C4908780190FF20087008788DF808
:1031C00000009DF800009DF8002000F0F000904203
:1031D00007D0502080F31188BFF34F8FBFF36F8F5C
:1031E000FEE79DF80000204C00F050002070072002
:1031F000606105E09DF8002052008DF80020401E1F
:103200009DF800201206F5D46061032807D05020F5
:1032100080F31188BFF34F8FBFF36F8FFEE74FF43A
:1032200040706061019808700C482030016841F4DA
:1032300070010160016841F070410160FFF750FDCD
:1032400000206060FCF7D0FF0848016841F0404171
:103250000160FCF7B5FF00201CBD000000ED00E0A0
:1032600071C20F4100E400E06400002034EF00E090
:1032700010B5502080F31188BFF34F8FBFF36F8FCD
:1032800000F0F0FA18B104494FF0805008600020B7
:1032900080F3118810BD000004ED00E02DE9F0413D
:1032A00017460E46050022D04FF0FF30B0FBF5F078
:1032B000B0421CD305FB06F010F1550F17D854305F
:1032C000FFF7E6FB04000ED004F154006EB120605D
:1032D000C4E90F562046012100F012F884F850701E
:1032E00000212046A164BDE8F0812460F0E7502071
:1032F00080F31188BFF34F8FBFF36F8FFEE700009D
:103300002DE9F0410F4604004FF001062DD0E06B8F
:1033100098B3B51EB5FBF0F1206C81423ED3FFF7A8
:1033200079FCD4E90F20216802FB0011A160002183
:10333000A163216861600A46D4E90F01401E00FBC9
:1033400001212046E16000F8445F457004F110005F
:10335000A7B1FFF72DFC04F12400FFF729FC00BF03
:10336000FFF778FC3046BDE8F081502080F31188EB
:10337000BFF34F8FBFF36F8FFEE70FE02169002986
:10338000EED000F067FB0028EAD008494FF08050EB
:103390000860BFF34F8FBFF36F8FE1E7502080F3DA
:1033A0001188BFF34F8FBFF36F8FFEE704ED00E08E
:1033B0002DE9FF4782B01D468A464FF00008040001
:1033C00003D0BAF1000F08D011E0502080F311882B
:1033D000BFF34F8FBFF36F8FFEE7206C38B15020E3
:1033E00080F31188BFF34F8FBFF36F8FFEE7022D7D
:1033F0000AD1E06B012807D0502080F31188BFF379
:103400004F8FBFF36F8FFEE700F018FA454F4FF074
:1034100000094FF0805648B9049838B1502080F325
:103420001188BFF34F8FBFF36F8FFEE7FFF7F2FBFB
:10343000A06BE16B884207D3022D05D0049838B306
:10344000B8F1000F27D02BE0D4F838802A46514637
:103450002046FEF7F8FFA16C41B1022D02D1B8F170
:10346000000F0FD12046FFF757F905E0616A19B147
:1034700004F1240000F0EEFA20B13E60BFF34F8F5C
:10348000BFF36F8FFFF7E6FB012006B0BDE8F087C2
:10349000FFF7E0FB22E06846FFF77EFD4FF00108F2
:1034A000FFF7D8FBFFF734FEFFF7B4FB94F94400B5
:1034B000401C01D184F8449094F94500401C01D18E
:1034C00084F84590FFF7C6FB04A9684600F042F96E
:1034D00030B12046FFF7A0FA00F02CFB0020D4E723
:1034E000FFF798FBA06BE16B884213D1FFF7B2FBAB
:1034F00004F110000499FFF75DFD2046FFF78CFAF8
:1035000000F018FB002891D13E60BFF34F8FBFF34E
:103510006F8F8BE7FFF79EFB2046FFF77DFA00F0E9
:1035200009FB83E704ED00E02DE9F0471F4616464E
:103530008A46040003D0BAF1000F08D011E05020F1
:1035400080F31188BFF34F8FBFF36F8FFEE7206CBE
:1035500038B1502080F31188BFF34F8FBFF36F8FC6
:10356000FEE7022F0AD1E06B012807D0502080F33C
:103570001188BFF34F8FBFF36F8FFEE7FFF740FC5B
:103580005021EFF3118081F31188BFF34F8FBFF308
:103590006F8F8046A06BE16B884207D3022F05D066
:1035A0005FF0000088F31188BDE8F08794F945507A
:1035B000D4F838903A4651462046FEF744FF681C3E
:1035C0000AD0FFF7EFFA854204D27F2D1DD06D1C83
:1035D00084F845500120E5E7A06C012540B1022F99
:1035E00002D1B9F1000FF5D12046FFF795F806E0BA
:1035F000606A0028EED004F1240000F02BFA0028C5
:10360000E8D0002EE6D03560E4E7502080F3118842
:10361000BFF34F8FBFF36F8FFEE700002DE9F74731
:10362000002683B08A46040003D0BAF1000F08D008
:1036300011E0502080F31188BFF34F8FBFF36F8FDD
:10364000FEE7206C38B1502080F31188BFF34F8F14
:10365000BFF36F8FFEE700F0F1F8DFF8F4804FF072
:1036600000094FF0805748B9059838B1502080F3D1
:103670001188BFF34F8FBFF36F8FFEE7FFF7CAFAD2
:10368000A56BC5B151462046FEF7CAFE6D1EA56367
:10369000206950B104F1100000F0DCF928B1C8F83D
:1036A0000070BFF34F8FBFF36F8FFFF7D3FA012086
:1036B00006B0BDE8F087059808B11EB106E0FFF737
:1036C000C9FA27E06846FFF767FC0126FFF7C2FA50
:1036D000FFF71EFDFFF79EFA94F94400401C01D14C
:1036E00084F8449094F94500401C01D184F8459039
:1036F000FFF7B0FA05A9684600F02CF8002820462C
:103700000AD0FFF789F900F015FA2046FEF7F6FF18
:103710000028B3D00020CBE7FEF7F0FF90B104F112
:1037200024000599FFF746FC2046FFF775F900F0E5
:1037300001FA0028A2D1C8F80070BFF34F8FBFF381
:103740006F8F9BE72046FFF767F900F0F3F995E7E5
:1037500004ED00E02DE9F0410C4605000FD0B4B1B6
:10376000FFF758FA1D49CA686F680868D31B00261E
:1037700090F8550098B1086880F8556028E050200E
:1037800080F31188BFF34F8FBFF36F8FFEE7502098
:1037900080F31188BFF34F8FBFF36F8FFEE7206870
:1037A000B0F1FF3F09D0D5F800C0096A8C4506D0BA
:1037B000974204D8012526600BE0002509E09842D5
:1037C00005D9C01A20602846FFF7E6FBF5E726601A
:1037D0000125FFF73FFA2846BDE8F08110000020E0
:1037E0002DE9FF5F8346DDE90E87994616468A4636
:1037F0009000FFF74DF905001DD05820FFF748F95C
:10380000040015D05821FCF787FD25630021CDE980
:103810000241CDE900874B46324651465846FEF7F5
:10382000D7FE2046FEF762FD012004B0BDE8F09F00
:103830002846FFF723FA4FF0FF30F6E705484169C5
:1038400019B1406B18B10020704701207047022069
:1038500070470000100000200148C0687047000059
:10386000100000202DE9F0414A4C0026606B28B181
:10387000A069401CA0613046BDE8F081E5686D1C80
:10388000E56013D1A06B006838B1502080F3118837
:10389000BFF34F8FBFF36F8FFEE7A06BE16BA163A8
:1038A000E063206A401C2062FFF75EF8A16A3A4894
:1038B0008D420FD34FF0000EA16B096839B1A16B97
:1038C000C968C9684A68954212D2A26202E04FF004
:1038D000FF31A1622168C96A01EB810150F8210022
:1038E000012800D90126E0690028C4D00126C2E7DA
:1038F000D1E902724B69BA60D1E902277A605F6848
:103900000A1D974201D1CF685F60C1F814E01F68BB
:103910007F1E1F60D1F828C0BCF1000F15D0D1E97F
:1039200007379F60D1E907377B60DCF8047001F14D
:1039300018039F4202D10B6ACCF80430C1F828E08A
:10394000DCF800305B1ECCF80030CB6A0127D4F8DD
:1039500010C09F4047EA0C07276103EB830300EB8D
:1039600083035B688B609F68CF609F687A609A6012
:10397000CA6A02EB820200EB82034B6150F82230EC
:103980005B1C40F82230C96A2268D26A914293D9FE
:10399000012691E710000020D000002070B504003F
:1039A0004FF000014FD0294D2868844207D05020A5
:1039B00080F31188BFF34F8FBFF36F8FFEE7E06C8A
:1039C00038B1401EE064A36CE26A9A423BD040B139
:1039D00039E0502080F31188BFF34F8FBFF36F8F12
:1039E000FEE7201DFFF7CAF8012130B994F82C003A
:1039F0002A6901FA00F082432A61A06CE062C0F1FA
:103A00000A00A061E06A2A698140114329611049D6
:103A100000EB800001EB80004068A0608268E260FB
:103A20008368221D5A608260E06A00EB800001EB2F
:103A300080006061E06A00EB800051F82020521C99
:103A400041F820200121084670BD00001000002030
:103A5000D000002070B5C068C46854B3D4E9072111
:103A6000A06A9160D4E907125160426804F118011C
:103A70008A4201D1226A42600022A26203685B1E70
:103A800003602A4D686B0126D8B1294A5068E0616D
:103A900083682362836859608160A2621068401C59
:103AA0001060E06A2968C96A88423CD90120EE6149
:103AB00070BD502080F31188BFF34F8FBFF36F8F1D
:103AC000FEE7D4E9023160699960D4E902135960D4
:103AD0004368211D8B4201D1E36843606261026843
:103AE000521E0260E06A2B6906FA00F21A432A614C
:103AF0000F4A00EB8000F03A02EB80004068A060C3
:103B00008368E360836859608160E06A00EB80004D
:103B100002EB8001616152F82010491C42F820102C
:103B2000FEF722FFBDE7002070BD0000100000205E
:103B3000C00100202DE9F041464D00242746686B66
:103B400038B1FFF767F8686B401E6863686B40B177
:103B50007AE0502080F31188BFF34F8FBFF36F8F4F
:103B6000FEE7A8683C4B00264FF00108F0BB6BE075
:103B7000D868C468D4E90721A06A9160D4E9071223
:103B80005160426804F118018A4201D1216A416002
:103B9000A6620168491E0160D4E902216069916052
:103BA000D4E9021251604268211D8A4201D1E268C3
:103BB000426066610268521E0260E26AD5F810C077
:103BC00008FA02F040EA0C00286102EB8200224A67
:103BD000F03A02EB80004068A060D0F808C0C4F85A
:103BE0000CC0D0F808C0CCF8041000E012E08160EE
:103BF000E06A00EB800002EB8001616152F8201066
:103C0000491C42F82010E06A2968C96A884201D339
:103C1000C5F81C8018680028AAD10CB1FEF7A4FED4
:103C2000AC693CB1FFF71EFE08B1C5F81C80641EEC
:103C3000F8D1AE61E86938B1084901273807086052
:103C4000BFF34F8FBFF36F8FFFF704F83846BDE81F
:103C5000F081000010000020C001002004ED00E011
:103C60002DE9F0470746994616460D462C20DDF80B
:103C700020A0FEF70DFF040018D0B84600204F46E4
:103C800084F82800D146A5B1FEF7AAFB04F118017B
:103C9000C4F8008081E8A002201DFEF794FF2EB139
:103CA00094F8280040F0040184F828102046BDE86C
:103CB000F087502080F31188BFF34F8FBFF36F8FD1
:103CC000FEE700001CB5FEF78BFB0D48006868B1ED
:103CD0000B490220091DCDE9000100234FF4827237
:103CE00008A10A48FFF77CFD002807D1502080F387
:103CF0001188BFF34F8FBFF36F8FFEE71CBD00002D
:103D000050000020546D722053766300F52900089E
:103D10002DE9FF411E46134602000A9D4FF00000A8
:103D200016D0144C2768002F0FD0CDE90013029253
:103D3000062917DAFFF782FD02284FF000030FD0A3
:103D4000002269462068FFF733FB04B0BDE8F0812C
:103D5000502080F31188BFF34F8FBFF36F8FFEE7C2
:103D60002A46EEE70023324669463846FFF7DCFB79
:103D7000EBE7000050000020000000000000000001
:103D80000102030406070809000000000102030401
:103D900000061016000610165761746368446F67BA
:103DA0000000000055534152545F5461736B000092
:103DB000D03D000800000020D00000000C190008D1
:103DC000A03E0008D0000020009600001C1900084A
:103DD0000024F400010000001000000000000000BA
:103DE00000000000000000000000000000000000D3
:103DF00000000000000000000000000000000000C3
:103E000000000000000000000000000000000000B2
:103E10000900000000000000000000000000000099
:103E20000000000000000000000000000000000092
:103E30000000000000000000AAAAAAAA00000000DA
:103E40000000000000000000000000000000000072
:103E50000000000000000000000000000000000062
:103E600000000000000000000000000085180008AD
:103E7000A43D0008800000000000000005000000D4
:103E80000000000000000000983D0008F401000060
:103E90000100000001000000A91800080000000057
:040000050800018965
:00000001FF
