:020000040800F2
:10000000B8040020A10100089D13000899130008FE
:100010009B130008130700085D160008000000008D
:10002000000000000000000000000000A113000814
:1000300039080008000000009F130008D1130008D1
:10004000BB010008BB010008BB010008BB010008A0
:10005000BB010008BB010008BB010008BB01000890
:10006000BB010008BB010008BB010008BB01000880
:10007000BB010008BB010008BB010008BB01000870
:10008000BB010008BB010008BB010008BB01000860
:10009000BB010008BB010008BB010008BB01000850
:1000A000BB010008BB010008BB010008BB01000840
:1000B000BB010008BB010008BB010008BB01000830
:1000C000BB010008BB010008BB010008BB01000820
:1000D000BB01000849160008BB010008BB0100086D
:1000E000BB010008BB010008BB010008BB01000800
:1000F000BB010008BB010008BB010008BB010008F0
:10010000BB010008BB010008BB010008BB010008DF
:10011000BB010008BB010008BB010008BB010008CF
:10012000BB010008BB010008BB010008BB010008BF
:10013000BB010008BB010008BB010008BB010008AF
:10014000BB010008BB010008BB010008BB0100089F
:10015000BB010008BB010008BB010008BB0100088F
:10016000BB010008BB010008BB010008BB0100087F
:10017000BB010008BB010008BB0100080000000033
:10018000BB010008BB010008DFF810D000F040FA06
:100190000048004749200008AFF30080B804002061
:1001A0000648804706480047FEE7FEE7FEE7FEE711
:1001B000FEE7FEE7FEE7FEE7FEE7FEE7691400085C
:1001C000890100082DE9F05F0546002092469B4614
:1001D00088460646814640241BE02846414647465D
:1001E000224600F04CF853465A46C01A914110D3AB
:1001F00011461846224600F033F82D1A67EB010825
:100200004F4622460120002100F02AF817EB000992
:100210004E41201EA4F10104DFDC484631462A4647
:100220004346BDE8F09F421C10F8011B0029FBD19A
:10023000801A704730B50B46014600202022012469
:1002400009E021FA02F59D4205D303FA02F5491BA4
:1002500004FA02F52844151EA2F10102F1DC30BDBA
:10026000202A04DB203A00FA02F100207047914076
:10027000C2F1200320FA03F3194390407047202A6B
:1002800004DB203A21FA02F00021704721FA02F340
:10029000D040C2F1200291400843194670472DE931
:1002A000FE4F804681EA0300C00F0C46009021F00B
:1002B000004123F00045B8EB0200A94105D24046B9
:1002C000214690461C460B46024623F00040104350
:1002D00047D0270DC7F30A00C3F30A510290401A12
:1002E000019040286BDAC3F3130040F4801B0098A0
:1002F000924620B10023D2EB030A63EB0B0B01986B
:100300005946C0F140025046FFF7AAFF06460D4687
:1003100050465946019A00F08DF910EB08006141F2
:10032000002487EA115284EAE7731A4340D0009A06
:1003300062B3019A012A4FEA075215DC001B61EBF8
:1003400002014FF0004202EA0752CDE90042001CD0
:1003500041F5801132462B4600F08DF903B0BDE81F
:10036000F08F40462146F9E7001B61EB0201001CBB
:1003700041F5801300185B412018A2F5001747EBE8
:10038000030140EAD570B6196D4111E06D084FEADE
:10039000360645EAC0754FEA0752001B61EB0201C1
:1003A000001C41F5801149084FEA30000019514105
:1003B00032462B4603B0BDE8F04F00F04DB900982F
:1003C000012240000023D0EB020263EBE0730098AF
:1003D00021464FEAE074B8EB000061EB0401E9E765
:1003E00083F000435BE781F0004158E72DE9FE4FC1
:1003F00081EA030404F0004421F0004100944FF02E
:10040000000B23F0004350EA01045ED052EA0304DB
:100410005BD0C3F30A54C1F30A552C44A4F2F3345D
:100420000194A0FB0254C1F3130141F48011C3F302
:10043000130343F4801301FB024400FB034E840AC0
:10044000970A44EA815447EA8357A4FB0768029558
:100450008D0A05FB07854FEA932C04FB0C542705F6
:10046000029D4FEA065847EA1637B5EB08056EEBD2
:10047000070C870E920E47EA811742EA8312A7FB08
:100480000201B6EB0B0164EB00042B0D43EA0C33C5
:100490005E1844EB1C50DA465146E7FB0201C5F3F7
:1004A00013044FEA0B3343EA14534FEA0432019C1E
:1004B00043EA0603A4F10C040294009CCDE900B4C5
:1004C00000F0D9F803B0BDE8F08F00200146F9E74D
:1004D0002DE9F04D81EA030404F0004B21F00045C2
:1004E00014464FF0000A23F0004150EA050220D0E4
:1004F00054EA01021DD0C5F30A570246C5F313039F
:10050000C1F31300C1F30A5640F4801543F480137D
:10051000A7EB0608101BD64608F2FD3873EB050062
:1005200002D308F1010801E092185B41B8F1000F15
:1005300003DA00200146BDE8F08D00204FF4801161
:10054000064684460EE0171B73EB050705D3121B06
:1005500063EB050306434CEA010C49084FEA3000FF
:1005600092185B4150EA0107EDD152EA030012D024
:1005700082EA040083EA0501084305D0101BAB4161
:1005800006D20122002306E000224FF0004302E0E1
:100590006FF0010253101AEB06004CEB085110EB00
:1005A0000A0041EB0B01BDE8F04D00F055B8C1F376
:1005B0000A52C1F3130140F2FF3341F480119A4211
:1005C00002DA00200146704740F233439A42A2F219
:1005D000334202DC5242FFF752BEFFF741BE000039
:1005E00030B5041E71F1000404DB4FF000444042BA
:1005F00064EB0101141E73F1000405DB1C464FF08F
:100600000043524263EB0403994208BF904230BD5D
:10061000064C074D06E0E06840F0010394E807004F
:1006200098471034AC42F6D3FFF7B2FDB020000873
:10063000D0200008202A06DBCB17203A41FA02F02E
:1006400043EAE07306E041FA02F3D040C2F120022F
:10065000914008431946704710B5141E73F1000409
:1006600008DA401C41F1000192185B411A4301D1A4
:1006700020F0010010BD2DE9F04D92469B4611B1CE
:10068000B1FA81F202E0B0FA80F220329046FFF730
:10069000E7FD04460F4640EA0A0041EA0B015346D3
:1006A0005A46084313D0114653EA010019D0C8F145
:1006B00040025046FFF7E3FD05460E4650465946B8
:1006C0004246FFF7CDFD084305D0012004E0204657
:1006D0003946BDE8F08D0020054346EAE0762C431C
:1006E00037430A986305E40AA0EB08000022FD0ADC
:1006F00044EA47540A3002D500200146E9E70105E3
:1007000010196941DDE9084500196941BDE8F04D5E
:10071000A2E7FEE710B50C4C0A480C2120604FF40C
:10072000E13060600020A060E060C4E90401A061E5
:10073000E061204600F066FD2068C16841F02001BC
:10074000C16010BD001001401000002038B51449F0
:1007500000200A6842F480020A600968124C01F421
:10076000800100910F4921604FF0006161604021DC
:10077000C4E902100901C4E90410A061E061032189
:100780002062C4E90901E0622063204600F062F8BB
:10079000204600F091F8A4F148008463A06338BDBE
:1007A00030380240B86402405800002010B5FFF70E
:1007B000B1FFBDE81040FFF7C9BF00000168182372
:1007C000CAB2103AB2FBF3F2054B6FF30901032AE8
:1007D0009B5CC36500D9091D816508467047000010
:1007E000A820000810B5014600208B698A6A4FF0E6
:1007F000C07453B1B3F5005F15D072B1012A0CD0AB
:10080000022A0AD0032A09D104E01AB1012A06D02B
:10081000022A03D1C96AC90100D5012010BDC96AE5
:10082000A142FAD010BD002AF7D0012AF2D0022A44
:10083000F3D0032AF3D010BD70470000044D4FF4ED
:10084000806400222146284600F098F9F9E700006C
:100850000014024070B504002BD094F83500022833
:1008600026D02068016821F0010101602068002580
:10087000056020684560206885602068C560206844
:1008800005612168212048612046FFF797FFE56355
:1008900025646564A564E564256594F85C203F21C2
:1008A00091408160656584F8355084F834500020AB
:1008B00070BD012070BD00002DE9F041044600F03C
:1008C00069F906465CB1022084F83500002584F8F9
:1008D00034502068016821F0010101600DE0012021
:1008E000BDE8F08100F056F9801B052805D92020CD
:1008F0006065032084F83500F2E720680068C007CF
:10090000F0D12268116820480140D4E9010318435E
:10091000D4E903363343184363691843A369184382
:10092000E3691843236A18430843616A042903D121
:10093000D4E90B1319430843106020684069666AC4
:1009400020F0070130460E43012704280CD1A06A8D
:100950000643E06A40B12046FFF744FF20B1402043
:10096000606584F83570BAE7206846612046FFF775
:1009700025FF94F85C203F2191408160656584F8F3
:1009800035700020ACE700003F8010F02DE9F84FF3
:10099000DFF8BCA10022012503264FF00F090AF160
:1009A000040BAAF1040E00BF0B6805FA02F4234001
:1009B000A34270D10F7907F00307012F01D0022F56
:1009C00016D187684FEA420806FA08FC27EA0C07A6
:1009D000D1F80CC00CFA08FC4CEA070CC0F808C0AF
:1009E0004768A7430C79C4F3001494403C43446027
:1009F0000C79E443A4070AD0C4684FEA420C06FA13
:100A00000CF7BC438F6807FA0CF72743C7600C79D3
:100A100004F00304022C12D1D40800EB840CDCF89F
:100A200020405707FF0E09FA07F824EA0804D1F816
:100A3000108008FA07F848EA0408CCF82080046817
:100A40004FEA420C06FA0CF7BC430F7907F0030794
:100A500007FA0CF7274307604C6814F4403F70D046
:100A60003C4C276847F480472760246822F003073E
:100A700004F480440094384C07EB040CDCF808487C
:100A800097074FEA177809FA08F7BC43334FB84283
:100A900002D1002724E054E0314FB84201D10127B0
:100AA0001EE0304FB84201D1022719E02E4FB84264
:100AB00001D1032714E02D4FB84201D104270FE0E4
:100AC0002B4FB84201D105270AE02A4FB84201D185
:100AD000062705E0284FB84201D1072700E0082784
:100AE00007FA08F72743CCF80878DAF800405746A9
:100AF000D1F804C09C435FEACC2C00D51C433C6079
:100B0000DBF800405F46D1F804C09C435FEA8C2CC0
:100B100000D51C433C60DEF800407746D1F804C0A5
:100B20009C435FEA8C3C00D51C433C60084F083F67
:100B30003C68D1F804C09C435FEACC3C00D51C4320
:100B40003C60521C102AFFF42FAFBDE8F88F000064
:100B5000083C01404438024000300140000002409F
:100B60000004024000080240000C02400010024055
:100B70000014024000180240001C02400AB18161CA
:100B800070470904FBE7000001480068000C70474B
:100B9000002004E001488068704700000400002045
:100BA0000248816802781144816070470400002087
:100BB000094810B5016841F400710160016841F411
:100BC00080610160032000F057F80F2000F006F864
:100BD00000F024F8002010BD003C024070B50D4D1F
:100BE00004464FF47A712878B1FBF0F00A4909689D
:100BF000B1FBF0F000F0F2FA48B9102C07D2002255
:100C00002146501E00F018F800206C6070BD0120D5
:100C100070BD000004000020000000207047002884
:100C200009DB00F01F02012191404009800000F122
:100C3000E020C0F800117047F0B40E4B1B680C4662
:100C4000C3F30223C3F10705042D00D90425191DA0
:100C5000072901D2002300E0DB1E012606FA05F178
:100C6000491E214099409E40761E16403143F0BCFB
:100C700000F010BD0CED00E0064900F00702086826
:100C80004FF6FF03184040EA0220034A1043086071
:100C9000704700000CED00E00000FA052DE9F04778
:100CA0000E46050065D0DFF81481D8F80000F7B2D1
:100CB00000F00700B04207D288F80070D8F80000B2
:100CC00000F00700B04254D128683D4C810712D58E
:100CD000400703D5206840F4E050206028780007E2
:100CE00003D5206840F4604020602068A96820F0A7
:100CF000F000084320602878C0072DD0304968688C
:100D00000839012812D0022813D0032811D009680D
:100D1000890700292DDA216821F0030101432160B0
:100D2000FFF738FF814641F2883A0EE009688903EF
:100D3000EFE709688901ECE7FFF72CFFA0EB090159
:100D4000514502D90320BDE8F0872068696800F0AA
:100D50000C00B0EB810FEFD1D8F80010404601F045
:100D60000701B14207D90770006800F00700B042E0
:100D700001D00120E7E72878400705D52068E96819
:100D800020F4E050084320602878000706D520684A
:100D9000296920F4604040EAC100206000F038F882
:100DA0002168084AC1F30311515CC8400649086034
:100DB00006480068FFF712FF0020C4E7003C02402D
:100DC00008380240902000080000002008000020A1
:100DD0000448054900680968044AC1F38221515C4E
:100DE000C84070470000002008380240A0200008DA
:100DF0000448054900680968044AC1F34231515C5E
:100E0000C84070470000002008380240A0200008B9
:100E1000154810B5006810F00C02144813D04110AA
:100E2000042A0FD0082A0ED10F4C241F22682368F1
:100E300002F03F025B0207D52068C0F38810A0FBD8
:100E4000010106E0084610BD2168C1F38811A1FB2D
:100E500000010023FFF7B6F92168C1F30141491CE5
:100E60004900B0FBF1F010BD083802400024F40046
:100E70002DE9F84F04006ED02078DFF84C93C007BE
:100E8000A9F104054AD009F104000168C1F3810108
:100E9000012908D00068C0F3810002280AD1D9F8DE
:100EA0000000400206D52868800337D56068002816
:100EB000E1D033E06068B0F5803F10D0B0F5A02FEE
:100EC000286810D020F480302860286820F4802022
:100ED00028606068A8B1FFF75DFE06460DE028684F
:100EE00040F48030F4E740F480202860F7E700BF4A
:100EF000FFF750FE801B642873D828688003F7D55D
:100F00000CE0FFF747FE064605E000BFFFF742FE94
:100F1000801B6428F0D828688003F7D42078DFF895
:100F2000AC8280074FF0000A3ED5A748001D01683B
:100F300011F00C0F08D00068C0F3810002280BD11B
:100F4000D9F80000400207D42868800716D5E06869
:100F5000012800D112E033E1E068B8B10120C8F8FF
:100F60000000FFF717FE064605E000BFFFF712FE80
:100F7000801B0228C0D828688007F7D52868216917
:100F800020F0F80040EAC10028600DE0C8F800A099
:100F9000FFF700FE064604E0FFF7FCFD801B022879
:100FA0001FD828688007F7D42078000722D5864FFD
:100FB00087486169703771B101210160FFF7EAFD6F
:100FC000064604E0FFF7E6FD801B022809D83868D2
:100FD0008007F7D50EE0C0F800A0FFF7DBFD06465E
:100FE00005E082E0FFF7D6FD801B02287DD8386837
:100FF0008007F7D42078400768D5DFF8CCB1002708
:101000000BF13C0BDBF80000C0000BD4DBF8001048
:1010100041F08051CBF80010DBF80000012700F010
:10102000805000906B4E3068C00510D4306840F49A
:1010300080703060FFF7AEFD009005E0FFF7AAFD7D
:101040000099401A022850D83068C005F6D55E4E87
:10105000A0686C3601280FD00528306810D020F029
:1010600001003060306820F004003060A068B8B142
:10107000FFF790FD00900FE0306840F00100F4E7CA
:1010800040F004003060F7E7FFF784FD0099411A53
:1010900041F28830814266D830688007F4D50EE08E
:1010A000FFF778FD009007E0FFF774FD0099411A03
:1010B00041F28830814256D830688007F4D42FB18D
:1010C000DBF8001021F08051CBF80010A069C8B304
:1010D0003D49091D0968C1F3810102294AD002284E
:1010E000504607D0C8F8600000E03CE0FFF752FD32
:1010F00004463BE04746C8F86000FFF74BFD064654
:1011000005E000BFFFF746FD801B02282BD82868AA
:101110008001F7D4D4E907010843A16A2E4A49089F
:1011200002EB0141626A41EA8211084394F82C10F3
:1011300040EA0161C9F8001001203866FFF72AFD76
:10114000044606E03EE000BFFFF724FD001B022836
:1011500009D828688001F7D534E000BFFFF71AFDF1
:10116000001B022802D90320BDE8F88F28688001FF
:10117000F4D427E00128F7D0D9F80000E26900F4A0
:10118000800191421CD1226A00F03F01914217D1A7
:1011900047F6C071626A0140B1EB821F10D1A26AAA
:1011A0004FF0FF3300F4403103EB5202B1EB024F3A
:1011B00006D194F82C1000F07060B0EB016F01D0F4
:1011C0000120D1E70020CFE7043802400000474269
:1011D000800E4742007000400000FFFF10B5401E27
:1011E000B0F1807F01D3012010BD4FF0E024606199
:1011F0000F21601700F04EFA0020A0610720206147
:10120000002010BD70B5040004D094F84100002502
:1012100010B106E0012070BD84F84050204600F077
:1012200023F8242084F841002068C16821F400518B
:10123000C160204600F048F92068016921F490411E
:1012400001612068416921F02A0141612068C1687B
:1012500041F40051C1606564202084F8410084F8A5
:1012600042006563002070BD30B500681F4987B03B
:10127000884239D11E48016841F0100101600068C0
:1012800000F0100005901A481438016841F001017F
:101290000160016801F001010591016841F001015F
:1012A00001600068072400F0010005904FF4007011
:1012B000009002200190012002900320CDE9030458
:1012C0000C4D69462846FFF761FB281500906946DA
:1012D00004942846FFF75AFB012200212520FFF73E
:1012E000ABFC2520FFF79BFC07B030BD0010014090
:1012F00044380240000002402DE9F843044690F8CB
:101300004100984616460D46202802D00220BDE82E
:10131000F88385B17EB100206064212084F841000B
:10132000FFF738FCA6848146E684A0682027B0F544
:10133000805F02D003E00120E9E7206910B12E466A
:1013400000250EE000260CE08021204600F042F946
:10135000A8B9C6B116F8010B21684860E08C401EA0
:10136000E084E08C4B464FF00002CDF8008000286E
:10137000EAD14FF04001204600F02CF940B184F84A
:1013800041700320C3E735F8020BC0F30800E3E720
:1013900084F841700020BAE7FEE7FEE77047704727
:1013A00070470000401EB0F1807F01D301207047DC
:1013B0004FF0E0214861054AF02082F8140D00202A
:1013C0008861072008610020704700000FE000E0FE
:1013D000FFF7E6BB30B5214893B00025016841F026
:1013E00080510160006800F0805011901C48016835
:1013F00041F4804101600068022400F480401190B3
:1014000001200090000401908001CDE906400820F1
:1014100008904FF4A870CDE9090407200B906846A6
:10142000FFF726FD68B90CA90F2081E831004FF4C1
:10143000A050E402CDE90F0405210CA8FFF72EFC13
:1014400008B1FFF7FBF9FFF79FFBA04204D905485D
:10145000016841F48071016013B030BD4038024032
:1014600000700040003C02400248016841F47001F5
:101470000160704788ED00E001680C3151E8002FF1
:1014800022F4907241E80023002BF5D10168143159
:1014900051E8002F22F0010241E80023002BF5D192
:1014A000016B012909D101680C3151E8002F22F0AC
:1014B000100241E80023002BF5D1202180F84210D2
:1014C000002101637047000070B50446006801699F
:1014D000E26821F44051114301612169A068E26989
:1014E00008436169114308432168CA6849F20C63E3
:1014F0009A430243CA6020684169A26921F440719D
:101500001143416131492068884202D03049884204
:1015100002D1FFF76DFC01E0FFF75AFCE2690023FE
:10152000192164253226B2F5004F626828D0A0FB4D
:101530000101930F9200FEF745FE0146B0FBF5F066
:101540006FF01802504301EB800006EB0010B0FB77
:10155000F5F000F0F002B1FBF5F002EB0012B1FB88
:10156000F5F06FF01803584301EB800006EB001014
:10157000B0FBF5F000F00F0021681044886070BDEA
:10158000A0FB010192185B41FEF71CFE0146B0FB77
:10159000F5F00201B1FBF5F06FF01803584301EBD1
:1015A000800006EBC000B0FBF5F000F0F80002EBA5
:1015B0004002B1FBF5F0584301EB800006EBC000A0
:1015C000B0FBF5F000F00700D6E700000010014086
:1015D000001401402DE9F843984617460D4604468D
:1015E000089E24E0701C22D0FFF7D4FAA0EB08007C
:1015F000B0421AD8CEB12068C168490717D5802DEE
:1016000015D0402D13D00168C94309070FD40168D4
:101610000025406800902046FFF72EFF08206064F8
:1016200084F840500120BDE8F8830320FBE72068E0
:10163000006835EA000004D00020B842D2D0002073
:10164000F1E70120F9E70000034800680168C94399
:10165000890600D44068704710000020FEE70000B3
:101660007CB50C001D461646014601D0601E00E008
:101670000020CDE90010064B6A462946304600F0AE
:10168000EBF8002C02D0009A002111707CBD000004
:101690005F1F00080907090E002804DB00F1E020A5
:1016A00080F80014704700F00F0000F1E02080F88F
:1016B000141D704702E008C8121F08C1002AFAD1A1
:1016C00070477047002001E001C1121F002AFBD1C2
:1016D000704700002DE9FF5F82B00021DDE9043092
:1016E000020DDDF840B0034318D044F61050A2F2CA
:1016F000FF3242431514119801281FD0A5EB0B00AF
:10170000401C5FEA000A4FF000064E4FDFF83891A8
:10171000B046504615D5CAF1000413E011980124D3
:101720004AA3012801D16FEA0B010298119AC0E97E
:101730000031C0E9024206B0BDE8F09FCBF10000E5
:10174000DFE704460021404A491842EB0450CDE946
:10175000001012E0E00707D032463B4640464946BB
:10176000FEF744FE8046894632463B4610461946FF
:10177000FEF73CFE06460F466410002CEAD1DDE978
:101780000401DDE90023BAF1000F06DAFEF72EFEB0
:1017900042464B46FEF72AFE05E0FEF799FE42461A
:1017A0004B46FEF795FE04460E460022284BFEF7F8
:1017B00017FF03D84FF0FF30014607E00022254B0A
:1017C00020463146FEF76BFDFEF7F1FE102409E0DE
:1017D000002C0ADB0A220023FEF7F4FC039B3032C4
:1017E0001A55641E50EA0102F2D1641C039AC4F136
:1017F00011031444119A012A03D0012208430DD188
:101800000AE0084304D000204FF0110B119072E75A
:10181000A3EB0B056D1E0DE05B4504DD4FF00002F0
:1018200005F1010504E003DA4FF00002A5F101051E
:10183000002AECD002981199C0E90231C0E90045B4
:1018400079E70000000014400000F03F3000000085
:101850000000F0430000E03F2DE9FF4F95B09A46AD
:10186000884606460025EEE1252877D10024274644
:10187000F94A0121039400E0044316F8013F203B9C
:1018800001FA03F01042F7D130782A2811D06FF016
:101890002F033078A0F13002092A16D8039A44F0B9
:1018A000020402EB820203EB42021044761C039016
:1018B000EFE758F8042B0392002A03DA504244F46D
:1018C0000054039044F00204761C30782E2816D180
:1018D00016F8010F44F004042A280DD06FF02F02EF
:1018E0003078A0F13003092B09D807EB870302EB0E
:1018F0004303C718761CF3E758F8047B761C30784E
:101900006C280FD006DC4C2817D068280DD06A2828
:1019100014D104E0742810D07A280FD10DE044F4DB
:1019200000140AE044F4801401E044F44014727896
:10193000824202D104F58014761C761C3078662829
:101940000BD013DC582877D009DC002875D0452847
:10195000F6D04628F4D047281AD193E118E063283E
:1019600035D0642879D0652812D18BE1702873D0E6
:1019700008DC6728F1D069286FD06E280DD06F2859
:1019800006D1ACE073282CD0752874D0782853D0B9
:101990005246179990476D1C54E1C4F30250022837
:1019A00009D003280DD0D8F8001004280DD00D6000
:1019B00008F1040846E1D8F80010EA17C1E900521E
:1019C000F6E7D8F800100D80F2E70D70F0E718F890
:1019D000041B8DF8001000208DF80100EB4601205B
:1019E00003E058F804BB4FF0FF3061074FF00001EF
:1019F00002D40DE009F101018946B9420FDA8145AF
:101A0000F8DB1BF809100029F4D108E009F1010105
:101A100089468142FADB1BF809100029F6D10398A8
:101A20005346A0EB090721463846179A00F080FA82
:101A3000284400EB090507E044E008E10DE01BF84D
:101A4000010B524617999047B9F10109F7D2534655
:101A500021463846179AF2E039E00A21C4F30252CF
:101A60004FF0000B0091022A06D058F8040BC11762
:101A7000032A09D00AE023E008F1070020F007025A
:101A8000F2E80201904605E000B2C117042A01D134
:101A900040B2C117002906DA0A460021404261EB34
:101AA00002012D2202E0220504D52B228DF804200C
:101AB000012203E0E20701D02022F7E7914657E038
:101AC0000A2100E010214FF0000B00910BE01021E3
:101AD0004FF0000B44F004040827009103E00820B5
:101AE0004FF0000B0090C4F30252022A05D058F8C0
:101AF000040B0021032A08D008E008F1070020F0B9
:101B00000702F2E80201904603E080B2042A00D105
:101B1000C0B24FF0000922072AD53278702A07D0C8
:101B2000DDF800C08CF0100C5CEA0B0C05D00EE068
:101B300040228DF80420012208E050EA010306D07B
:101B400030238DF804308DF8052002229146009B49
:101B500083F0080353EA0B030AD150EA010201D1D2
:101B6000620705D530228DF804204FF001097F1E51
:101B70003278582A04D039A20C920CAA02920BE0B7
:101B80003BA2F9E75B46009AFEF71CFB0C9B9B5CB3
:101B9000029A521E0292137050EA0102F2D1029888
:101BA00004A9081A00F1200B600702D524F4803440
:101BB00000E001275F4502DDA7EB0B0000E00020FD
:101BC00000EB0B01009003984944401A0390E00396
:101BD00006D453462146179A039800F0A9F9054404
:101BE000002706E001A85246C05D179990476D1C7A
:101BF0007F1C4F45F6DBE0030CD553462146179A70
:101C0000039800F095F9054404E0302052461799F6
:101C100090476D1C0099481E00900029F5DC08E0F3
:101C20000298029952460078491C029117999047F0
:101C30006D1CBBF10001ABF1010BF1DC5BE100F0CD
:101C400065F90544761C307800287FF40DAE19B094
:101C50002846BDE8F08F00000928010030313233FA
:101C600034353637383961626364656600000000D8
:101C700030313233343536373839414243444546C2
:101C800000000000600700D4062708F1070020F0DC
:101C90000700F0E80223804603F0004C5FEA0C00E6
:101CA00001D097A009E0200501D596A005E0E00746
:101CB00001D095A001E0AFF24C001390307823F0F2
:101CC000004365280CD006DC452809D046281DD0E5
:101CD00047287FD13BE0662818D067287AD136E0C4
:101CE0000021112F01DB112000E0781CCDE900015B
:101CF00004A90CA8FFF7EEFCDDE90D010C9A4FF0EA
:101D0000000B07F10109109200914EE04FF00040E6
:101D10000097CDE9011004A90CA8FFF7DBFCDDE971
:101D20000D020C9B0F994FF0000B914610930092FF
:101D300011B9791C00EB0109B7EB090003D4C0F11C
:101D4000FF3B07F10109A9EB0700019042E0012FD9
:101D500000DA01270021112F01DD112000E03846B3
:101D6000CDE9000104A90CA8FFF7B4FCDDE90D01E1
:101D70000C9A00914FF0000BB946109221070FD436
:101D8000009A4A4503DA914601E0A9F10109B9F147
:101D9000010F05DD109AA9F10101515C3029F4D041
:101DA000B84202DA10F1040F03DA0121CDE9011083
:101DB00010E0002803DC8344A9EB000102E0411C91
:101DC000494500DD8946A0EB0B00401C01904FF017
:101DD00000400290200705D40198484502DB4FF0EF
:101DE000FF30019000208DF84B0002980DF14B0759
:101DF000B0F1004F25D002200C902B200D900298BE
:101E000000280CDA404202902D200D9007E00A21B4
:101E10000298FEF70FFA3031029007F8011D0C9975
:101E2000481E0C900029F2DC02980028EFD1791EA0
:101E30000D980870307800F0200040F0450007F859
:101E4000020D11A8C01BC01D02901398007800B1AC
:101E5000012000EB0901019801EBE07102980144B7
:101E60000398401A401E0390E00306D453462146CF
:101E7000179A039800F05CF805441398007818B19D
:101E80005246179990476D1CE00323D553462146CF
:101E9000179A039800F04CF805441BE0BBF1000FC3
:101EA00007DB0098584504DD1098179910F80B00CF
:101EB00001E0179930205246904701980BF1010B31
:101EC000401E05F10105019004D12E2052461799BC
:101ED00090476D1CB9F10001A9F10109DEDC05E0B4
:101EE00017F8010B5246179990476D1C0299481E2E
:101EF00002900029F4DC53462146179A03989EE687
:101F00002D0000002B000000200000002DE9F04112
:101F1000044600251E461746880404D405E03946C9
:101F20002020B0476D1C641EF9D52846BDE8F0811D
:101F30002DE9F041044600251E469046C80301D510
:101F4000302700E02027880404D505E041463846C4
:101F5000B0476D1C641EF9D52846BDE8F0814A687B
:101F6000002A06D00A68531C0B6010704868401E97
:101F7000486070470FB4802100B5A1B023AB68461C
:101F8000229AFFF76DFB6846FEF74DF982B24FF6D5
:101F9000FF7369460248FFF7AFF921B05DF814FB03
:101FA0001000002001B50C484FF47A710068B0FBB6
:101FB000F1F0FFF7F7F900204FF0E02103E00A69A4
:101FC000D203FCD5401C009A9042F8D3086920F057
:101FD0000100086108BD00000000002070B518482D
:101FE00086B0016841F020010160016801F0200124
:101FF0000591016841F0200101600068022100F0B4
:102000002000059001204402CDE90040CDE9020105
:102010000C4E69463046FEF7B9FC6500694630460D
:102020000095FEF7B3FC012221463046FEF7A6FDDF
:10203000012229463046FEF7A1FD06B070BD000022
:102040003038024000140240FEF7B2FDFFF7C6FF31
:10205000FFF7C0F9FEF7AAFB08A0FFF78BFF0B4CB8
:102060004FF4FA7505A0FFF785FF206880F48060C3
:1020700020602846FFF796FFF4E7000048656C6C87
:102080006F20576F726C64210D0A00001414024017
:102090000000000000000000010203040607080918
:1020A00000000000010203040006101600061016CE
:1020B000D02000080000002010000000B416000826
:1020C000E020000810000020A8040000C41600084A
:1020D0000024F400010000001000000000000000D7
:040000050800018965
:00000001FF
