:020000040800F2
:10000000A0990020F10200083F1600083B160008E6
:100010003D16000891080008A5190008000000001E
:100020000000000000000000000000003102000895
:1000300093080008000000008D0200084116000827
:100040000B0300080B0300080B0300080B03000858
:100050000B0300080B0300080B0300080B03000848
:100060000B0300080B0300080B0300080B03000838
:100070000B0300080B0300080B0300080B03000828
:100080000B0300080B0300080B0300080B03000818
:100090000B0300080B0300080B0300080B03000808
:1000A0000B0300080B0300080B0300080B030008F8
:1000B0000B0300080B0300080B0300080B030008E8
:1000C0000B0300080B0300080B0300080B030008D8
:1000D0000B030008991900080B0300080B03000824
:1000E0000B0300080B0300080B0300080B030008B8
:1000F0000B0300080B0300080B0300080B030008A8
:100100000B0300080B0300080B0300080B03000897
:100110000B0300080B0300080B0300080B03000887
:100120000B0300080B0300080B0300080B03000877
:100130000B0300080B0300080B0300080B03000867
:100140000B0300080B0300080B0300080B03000857
:100150000B0300080B0300080B0300080B03000847
:100160000B0300080B0300080B0300080B03000837
:100170000B0300080B0300080B030008000000003D
:100180000B0300080B03000800F002F800F041F830
:100190000AA090E8000C82448344AAF10107DA45E2
:1001A00001D100F036F8AFF2090EBAE80F0013F0F3
:1001B000010F18BFFB1A43F00103184784340000F5
:1001C000A4340000103A24BF78C878C1FAD8520786
:1001D00024BF30C830C144BF04680C6070470000C1
:1001E0000023002400250026103A28BF78C1FBD840
:1001F000520728BF30C148BF0B607047642900F028
:100200004F81002070471FB503F0FCF91FBD10B5EA
:1002100010BD00F0D5FA1146FFF7F5FF01F048FCDC
:1002200000F0F3FA03B4FFF7F2FF03BC01F0E6FBC2
:100230002C4B19680868B0E8F04F80F30988BFF3C9
:100240006F8F4FF0000080F31188704700000000AE
:1002500008480068006880F308884FF0000080F3C9
:10026000148862B661B6BFF34F8FBFF36F8F00DFA4
:1002700000BF00BF08ED00E0DFF80C00016841F4AA
:1002800070010160704700BF88ED00E0EFF3098066
:10029000BFF36F8F134B1A681EF0100F08BF20EDCD
:1002A000108A20E9F04F106009B44FF0500080F33D
:1002B0001188BFF34F8FBFF36F8F02F077FB4FF0C2
:1002C000000080F3118809BC19680868B0E8F04F95
:1002D0001EF0100F08BFB0EC108A80F30988BFF33E
:1002E0006F8F704710000020EFF30580704700000B
:1002F0000948804709480047FEE7FEE7FEE7FEE7BA
:10030000FEE7FEE7FEE7FEE7FEE7FEE704480549F5
:10031000054A064B70470000E516000889010008F1
:10032000A08F0020A0990020A0910020A091002083
:10033000704753EA020C00F069802DE9F04B4FF052
:100340000006002B1FBFB3FA83F503FA05F424FA65
:1003500005F65E4012BF1643B2FA82F502FA05F4C2
:10036000C5F120051EBF22FA05FC44EA0C04203525
:1003700056EA044C4FEA144418BF641C4FF00008BE
:100380004FF00009904271EB030C39D3002919BFDB
:10039000B1FA81F701FA07F6B0FA80F700FA07F62A
:1003A000C7F120071EBF20FA07FC46EA0C062037DB
:1003B000B6FBF4FCA7EB0507103F07F01F0BCBF1D2
:1003C00020060CFA0BFB2CFA06F644BFB3460026B7
:1003D000202FA4BF5E464FF0000B5BEA060C08BF5F
:1003E0004FF0010B19EB0B09ABFB027C48EB060845
:1003F000C01B06FB02CC0BFB03CC71EB0C01C1E76D
:100400000B46024641464846BDE8F08B13B54FF017
:1004100000004FF00001AFF30080BDE81C407047C2
:100420000FB4044910B503AA029800F069F910BC92
:100430005DF814FBA00000202DE9F0410E460446B3
:10044000002020622046E168884730B3252805D087
:10045000D4E901219047206A401CF2E7E168204678
:1004600000278847050018D0A5F14100192802D8B7
:1004700020354FF400673246294620462760FFF7B3
:10048000BDFE40B1012804D0F61D26F0070608364F
:10049000D8E7361DD6E72846DAE7206ABDE8F081BE
:1004A0002DE9F0410646002410687529314616A54D
:1004B00010D0AFF30080002802DA404213A507E015
:1004C00031688A0701D512A502E0490704D511A5B4
:1004D000012401E0AFF3008000210A2206F1240785
:1004E00009E0B0FBF2FCB0FBF2F302FB1C00303081
:1004F00078541846491C0028F3D123462A46304632
:10050000BDE8F04100F0A2B8000000002D0000009E
:100510002B00000020000000032A40F2308010F081
:10052000030C00F0158011F8013BBCF1020F62448E
:1005300098BF11F801CB00F8013B38BF11F8013B1F
:10054000A2F1040298BF00F801CB38BF00F8013BCC
:1005500011F0030300F0E680083AC0F0088051F87B
:10056000043B083A51F804CBA0E80810F5E7121D47
:100570005CBF51F8043B40F8043BAFF30080D20766
:1005800024BF11F8013B11F801CB48BF11F8012B32
:1005900024BF00F8013B00F801CB48BF00F8012B55
:1005A000704702F0FF0343EA032242EA024200F0EE
:1005B00002B84FF000020429C0F0128010F0030CC2
:1005C00000F01B80CCF1040CBCF1020F18BF00F846
:1005D000012BA8BF20F8022BA1EB0C0100F00DB8F5
:1005E0005FEAC17C24BF00F8012B00F8012B48BF53
:1005F00000F8012B70474FF0000200B513469446F7
:100600009646203922BFA0E80C50A0E80C50B1F16A
:100610002001BFF4F7AF090728BFA0E80C5048BF7E
:100620000CC05DF804EB890028BF40F8042B08BF1C
:10063000704748BF20F8022B11F0804F18BF00F818
:10064000012B704770477047704770472DE9F0479E
:100650000D4699469246044600F124080168880632
:1006600004D5E06921F01001216000E00120A842DA
:1006700001DD471B00E00027A1697A1902EB0900A0
:10068000081AA0612078C00602D42046AFF300808B
:10069000002608E0D4E901211AF806009047206AF4
:1006A000401C761C20624E45F4DB2078C0060AD53B
:1006B0002046AFF3008006E0D4E9012130209047C6
:1006C000206A401C2062381EA7F10107F4DC07E015
:1006D000D4E9012118F805009047206A401C2062E7
:1006E000281EA5F10105F3DC2046AFF30080207839
:1006F000000602D50220BDE8F0870120FBE70000DC
:10070000074B70B50D467B4400F043F8044628467D
:1007100000F052F810B14FF0FF3070BD204670BDB0
:100720009313000010B5203AC0F00B80B1E81850C8
:10073000203AA0E81850B1E81850A0E81850BFF4CB
:10074000F5AF5FEA027C24BFB1E81850A0E818506A
:1007500044BF18C918C0BDE810405FEA827C24BFBE
:1007600051F8043B40F8043B08BF7047D20728BF4C
:1007700031F8023B48BF11F8012B28BF20F8023B9B
:1007800048BF00F8012B704701694A1C02610878D4
:10079000704700B58FB0CDE90131002105910549C1
:1007A0007944CDE9031011466846FFF745FE0FB0C6
:1007B00000BD0000E5FFFFFF007B00F080007047F8
:1007C000754600F02BF8AE4605006946534620F00A
:1007D0000700854618B020B5FFF798FDBDE820401A
:1007E0004FF000064FF000074FF000084FF0000BED
:1007F00021F00701AC46ACE8C009ACE8C009ACE8A0
:10080000C009ACE8C0098D46704710B50446AFF387
:1008100000802046BDE81040FFF704BD0048704747
:10082000408F00207CB501F03BFE184C0025D4E938
:100830000401CDE900012289D4E90001E36802F056
:1008400015FCA061012801D000F024F80F4C1C34E5
:100850002069009094E80F0002F048FE606148B102
:1008600002F040FC0246009500230121606902F07D
:1008700095FE01E000F00EF80448001F006801F04A
:1008800077FFBDE87C4001F02BBE0000A8000020EF
:10089000FEE770477047000070B5184886B00168E1
:1008A00041F020010160016801F02001059101681B
:1008B00041F0200101600068022100F02000059055
:1008C00001204402CDE90040CDE902010C4E694609
:1008D000304600F073F8650069463046009500F038
:1008E0006DF801222146304600F060F901222946C8
:1008F000304600F05BF906B070BD000030380240B1
:10090000001402402DE9F0410446876D00F05AF9C9
:10091000064694F835000025022806D08020606540
:1009200084F834500120BDE8F0812068016821F08E
:10093000160101602068416921F080014161206C4D
:1009400008B9A06C20B12068016821F0080101609D
:100950002068016821F0010101600CE000F032F92B
:10096000801B052807D920206065032084F8350006
:1009700084F83450D7E720680068C007EED194F8B7
:100980005C103F208840B860012084F8350084F86E
:1009900034500020C7E790F83510022903D0802199
:1009A000416501207047052180F835100068016815
:1009B00021F0010101600020704700002DE9F84F8F
:1009C000DFF8BCA10022012503264FF00F090AF130
:1009D000040BAAF1040E00BF0B6805FA02F42340D1
:1009E000A34270D10F7907F00307012F01D0022F26
:1009F00016D187684FEA420806FA08FC27EA0C0776
:100A0000D1F80CC00CFA08FC4CEA070CC0F808C07E
:100A10004768A7430C79C4F3001494403C434460F6
:100A20000C79E443A4070AD0C4684FEA420C06FAE2
:100A30000CF7BC438F6807FA0CF72743C7600C79A3
:100A400004F00304022C12D1D40800EB840CDCF86F
:100A500020405707FF0E09FA07F824EA0804D1F8E6
:100A6000108008FA07F848EA0408CCF820800468E7
:100A70004FEA420C06FA0CF7BC430F7907F0030764
:100A800007FA0CF7274307604C6814F4403F70D016
:100A90003C4C276847F480472760246822F003070E
:100AA00004F480440094384C07EB040CDCF808484C
:100AB00097074FEA177809FA08F7BC43334FB84253
:100AC00002D1002724E054E0314FB84201D1012780
:100AD0001EE0304FB84201D1022719E02E4FB84234
:100AE00001D1032714E02D4FB84201D104270FE0B4
:100AF0002B4FB84201D105270AE02A4FB84201D155
:100B0000062705E0284FB84201D1072700E0082753
:100B100007FA08F72743CCF80878DAF80040574678
:100B2000D1F804C09C435FEACC2C00D51C433C6048
:100B3000DBF800405F46D1F804C09C435FEA8C2C90
:100B400000D51C433C60DEF800407746D1F804C075
:100B50009C435FEA8C3C00D51C433C60084F083F37
:100B60003C68D1F804C09C435FEACC3C00D51C43F0
:100B70003C60521C102AFFF42FAFBDE8F88F000034
:100B8000083C01404438024000300140000002406F
:100B90000004024000080240000C02400010024025
:100BA0000014024000180240001C02400AB181619A
:100BB00070470904FBE7000001480068000C70471B
:100BC000002004E001488068704700000400002015
:100BD0000248816802781144816070470400002057
:100BE000094810B5016841F400710160016841F4E1
:100BF00080610160032000F057F80F2000F006F834
:100C000000F024F8002010BD003C024070B50D4DEE
:100C100004464FF47A712878B1FBF0F00A4909686C
:100C2000B1FBF0F000F0FEFA48B9102C07D2002218
:100C30002146501E00F018F800206C6070BD0120A5
:100C400070BD000004000020000000207047002854
:100C500009DB00F01F02012191404009800000F1F2
:100C6000E020C0F800117047F0B40E4B1B680C4632
:100C7000C3F30223C3F10705042D00D90425191D70
:100C8000072901D2002300E0DB1E012606FA05F148
:100C9000491E214099409E40761E16403143F0BCCB
:100CA00000F09CBE0CED00E0064900F00702086869
:100CB0004FF6FF03184040EA0220034A1043086041
:100CC000704700000CED00E00000FA052DE9F04748
:100CD0000E46050065D0DFF81481D8F80000F7B2A1
:100CE00000F00700B04207D288F80070D8F8000082
:100CF00000F00700B04254D128683D4C810712D55E
:100D0000400703D5206840F4E050206028780007B1
:100D100003D5206840F4604020602068A96820F076
:100D2000F000084320602878C0072DD0304968685B
:100D30000839012812D0022813D0032811D00968DD
:100D4000890700292DDA216821F003010143216080
:100D5000FFF738FF814641F2883A0EE009688903BF
:100D6000EFE709688901ECE7FFF72CFFA0EB090129
:100D7000514502D90320BDE8F0872068696800F07A
:100D80000C00B0EB810FEFD1D8F80010404601F015
:100D90000701B14207D90770006800F00700B042B0
:100DA00001D00120E7E72878400705D52068E968E9
:100DB00020F4E050084320602878000706D520681A
:100DC000296920F4604040EAC100206000F038F852
:100DD0002168084AC1F30311515CC8400649086004
:100DE00006480068FFF712FF0020C4E7003C0240FD
:100DF000083802400E3600080000002008000020DD
:100E00000448054900680968044AC1F38221515C1D
:100E1000C840704700000020083802401E36000815
:100E20000448054900680968044AC1F34231515C2D
:100E3000C840704700000020083802401E360008F5
:100E4000154810B5006810F00C02144813D041107A
:100E5000042A0FD0082A0ED10F4C241F22682368C1
:100E600002F03F025B0207D52068C0F38810A0FBA8
:100E7000010106E0084610BD2168C1F38811A1FBFD
:100E800000010023FFF755FA2168C1F30141491C15
:100E90004900B0FBF1F010BD083802400024F40016
:100EA0002DE9F84F04006ED02078DFF84C93C0078E
:100EB000A9F104054AD009F104000168C1F38101D8
:100EC000012908D00068C0F3810002280AD1D9F8AE
:100ED0000000400206D52868800337D560680028E6
:100EE000E1D033E06068B0F5803F10D0B0F5A02FBE
:100EF000286810D020F480302860286820F48020F2
:100F000028606068A8B1FFF75DFE06460DE028681E
:100F100040F48030F4E740F480202860F7E700BF19
:100F2000FFF750FE801B642873D828688003F7D52C
:100F30000CE0FFF747FE064605E000BFFFF742FE64
:100F4000801B6428F0D828688003F7D42078DFF865
:100F5000AC8280074FF0000A3ED5A748001D01680B
:100F600011F00C0F08D00068C0F3810002280BD1EB
:100F7000D9F80000400207D42868800716D5E06839
:100F8000012800D112E033E1E068B8B10120C8F8CF
:100F90000000FFF717FE064605E000BFFFF712FE50
:100FA000801B0228C0D828688007F7D528682169E7
:100FB00020F0F80040EAC10028600DE0C8F800A069
:100FC000FFF700FE064604E0FFF7FCFD801B022849
:100FD0001FD828688007F7D42078000722D5864FCD
:100FE00087486169703771B101210160FFF7EAFD3F
:100FF000064604E0FFF7E6FD801B022809D83868A2
:101000008007F7D50EE0C0F800A0FFF7DBFD06462D
:1010100005E082E0FFF7D6FD801B02287DD8386806
:101020008007F7D42078400768D5DFF8CCB10027D7
:101030000BF13C0BDBF80000C0000BD4DBF8001018
:1010400041F08051CBF80010DBF80000012700F0E0
:10105000805000906B4E3068C00510D4306840F46A
:1010600080703060FFF7AEFD009005E0FFF7AAFD4D
:101070000099401A022850D83068C005F6D55E4E57
:10108000A0686C3601280FD00528306810D020F0F9
:1010900001003060306820F004003060A068B8B112
:1010A000FFF790FD00900FE0306840F00100F4E79A
:1010B00040F004003060F7E7FFF784FD0099411A23
:1010C00041F28830814266D830688007F4D50EE05E
:1010D000FFF778FD009007E0FFF774FD0099411AD3
:1010E00041F28830814256D830688007F4D42FB15D
:1010F000DBF8001021F08051CBF80010A069C8B3D4
:101100003D49091D0968C1F3810102294AD002281D
:10111000504607D0C8F8600000E03CE0FFF752FD01
:1011200004463BE04746C8F86000FFF74BFD064623
:1011300005E000BFFFF746FD801B02282BD828687A
:101140008001F7D4D4E907010843A16A2E4A49086F
:1011500002EB0141626A41EA8211084394F82C10C3
:1011600040EA0161C9F8001001203866FFF72AFD46
:10117000044606E03EE000BFFFF724FD001B022806
:1011800009D828688001F7D534E000BFFFF71AFDC1
:10119000001B022802D90320BDE8F88F28688001CF
:1011A000F4D427E00128F7D0D9F80000E26900F470
:1011B000800191421CD1226A00F03F01914217D177
:1011C00047F6C071626A0140B1EB821F10D1A26A7A
:1011D0004FF0FF3300F4403103EB5202B1EB024F0A
:1011E00006D194F82C1000F07060B0EB016F01D0C4
:1011F0000120D1E70020CFE7043802400000474239
:10120000800E4742007000400000FFFF4FF0E021D9
:101210000428086903D020F004000861704740F0FA
:101220000400FAE710B5401EB0F1807F01D3012021
:1012300010BD4FF0E02460610F21601700F0CEFB7D
:101240000020A06107202061002010BD704770477A
:10125000F8B5016804460868CA684B6910F00F0FBA
:101260004FF0000559D003F0010602F490773743A0
:1012700065D0C10705D0D10503D5616C41F00101EE
:101280006164410705D5D90703D0616C41F00201C3
:101290006164810705D5D90703D0616C41F0040171
:1012A0006164010707D502F02001314303D0616C6E
:1012B00041F008016164616C00293AD0800604D5D0
:1012C000900602D5204600F064FA20684069616CFF
:1012D000C0F38010090700D460B3204600F032FA52
:1012E00020684069400621D52068143050E8001F6E
:1012F00021F0400140E80012002AF5D1E06BA8B1CE
:101300006E490165E06BFFF746FB002811D0E06BEA
:10131000016D01B0BDE8F040084783060FD5930684
:101320000DD52046BDE8F84000F033BA2046FFF75F
:101330008EFFF8BD2046FFF78AFF6564F8BD266B77
:101340002023012E7DD1C6067BD5D60679D5086827
:101350004868009048694FF00206400641D5E16BAD
:10136000086840680004000CE8D0A28D8242E5D9EC
:10137000E085C869B0F5807F2DD020680C3050E83A
:10138000001F21F4807140E80012002AF5D1206886
:10139000143050E8001F21F0010140E80012002A3B
:1013A000F5D12068143050E8001F21F0400140E8DA
:1013B0000012002AF5D184F84230256320680C30F1
:1013C00050E8001F21F0100140E80012002AF5D17A
:1013D000E06BFFF797FA6663A08DE18D401A81B24A
:1013E0002AE0A08DE18D401A81B2E08D0028A5D0C1
:1013F0000029A3D022680C3252E8000F20F490702C
:1014000042E80007002FF5D12068143050E8002F83
:1014100022F0010240E80027002FF5D184F8423085
:10142000256320680C3050E8002F22F0100240E8BD
:101430000023002BF5D166632046FFF707FFF8BDB8
:10144000FFE705062BD5150629D594F8410021287C
:10145000F5D1A068B0F5805F01D12069B0B1206AF4
:10146000411C2162216800784860E08C401E000425
:10147000000CE084E3D12068C16821F08001C160E4
:101480002068C16841F04001C160D8E7206A008847
:10149000C0F308004860206A801C2062E5E740062F
:1014A000CDD55006CBD5CA68204622F04002CA608E
:1014B00084F8413000F0C0F8C1E70000351700089B
:1014C00070B5040004D094F84100002510B106E086
:1014D000012070BD84F84050204600F023F82420FD
:1014E00084F841002068C16821F40051C1602046A1
:1014F00000F0B0F92068016921F490410161206891
:10150000416921F02A0141612068C16841F400511C
:10151000C1606564202084F8410084F8420065635E
:10152000002070BD30B500681F4987B0884238D1AF
:101530001E48016841F010010160006800F01000D1
:1015400005901A481438016841F0010101600168F2
:1015500001F001010591016841F00101016000689D
:10156000012100F0010005904FF40070009002206E
:10157000CDE901010724CDE903040D4D6946284654
:10158000FFF71CFA28150090694604942846FFF7D7
:1015900015FA2520FFF75BFB032211462520FFF7F4
:1015A00063FB07B030BD000000100140443802402A
:1015B0000000024090F84230202B01D002207047FA
:1015C00021B11AB10023036300F0CAB901207047AA
:1015D00030B400681549884225D1154841880A046D
:1015E00016D402464C0412784FF0000304D50A2AA0
:1015F0000DD141F4004114E00D2A10D0C1F30D04C7
:101600000C4D491C89B22A554180C72900D9438015
:101610000848012230BC0649C830FFF7CBBF41F46F
:1016200080414180F4E730BC704700000010014069
:101630009C000020308E00207047FEE7FEE77047D8
:1016400010B5FFF7C5FA01F03FFD012803D0BDE852
:10165000104001F053BA10BD30B51F4893B00025BB
:10166000016841F080510160006800F080501190E5
:101670001A48016841F4804101600068022400F4C6
:101680008040119001200090000401908001CDE97C
:101690000640082008904FF4A870CDE909040720FF
:1016A0000B906846FFF7FCFB0CA90F2081E8310086
:1016B0004FF4A050E402CDE90F0405210CA8FFF778
:1016C00005FBFFF779FAA04204D90548016841F407
:1016D0008071016013B030BD40380240007000409E
:1016E000003C02400248016841F47001016070470B
:1016F00088ED00E01CB509490120CDE90001002377
:10170000802207A10A4801F0B1FC012801D0012084
:101710001CBD01F0D5F800201CBD0000A400002075
:101720004170705461736B437265617465000000B1
:101730002508000810B5806B0021C185C184FFF722
:1017400086FD10BD01680C3151E8002F22F4907223
:1017500041E80023002BF5D10168143151E8002F36
:1017600022F0010241E80023002BF5D1016B012991
:1017700009D101680C3151E8002F22F0100241E834
:101780000023002BF5D1202180F8421000210163B5
:10179000704708B590F84210222901D0022008BDF8
:1017A00082684FF480539A4201D1016921B1816A64
:1017B0009A421BD04AB10AE00268816A5268C2F3B9
:1017C00008020A80816A891C08E0026972B1026815
:1017D000526802F07F020A70816A491C8162C18DE1
:1017E000491E0904090CC18503D01BE00268526838
:1017F000F1E70168CA6822F02002CA600168CA687D
:1018000022F48072CA6001684A6922F001024A61CA
:10181000202180F8421000214163026B012A03D08D
:10182000FFF7D6FE002008BD016301680C3151E8C6
:10183000002F22F0100241E80023002BF5D10168AF
:101840000A68D20602D50A6849680091818DFFF7BF
:10185000FDFCE7E770B5044600680169E26821F421
:101860004051114301612169A068E269084361693F
:10187000114308432168CA6849F20C639A43024342
:10188000CA6020684169A26921F440711143416135
:1018900031492068884202D03049884202D1FFF79E
:1018A000BFFA01E0FFF7ACFAE269002319216425D1
:1018B0003226B2F5004F626828D0A0FB0101930FD9
:1018C0009200FEF736FD0146B0FBF5F06FF018020E
:1018D000504301EB800006EB0010B0FBF5F000F088
:1018E000F002B1FBF5F002EB0012B1FBF5F06FF086
:1018F0001803584301EB800006EB0010B0FBF5F035
:1019000000F00F0021681044886070BDA0FB010149
:1019100092185B41FEF70DFD0146B0FBF5F00201A8
:10192000B1FBF5F06FF01803584301EB800006EBB4
:10193000C000B0FBF5F000F0F80002EB4002B1FB94
:10194000F5F0584301EB800006EBC000B0FBF5F06A
:1019500000F00700D6E7000000100140001401402D
:1019600081628285C28500214164222180F8421073
:10197000016921B10168CA6842F48072CA600168D5
:101980004A6942F001024A610068C16841F02001E1
:10199000C1600020704700000148FFF759BC0000FB
:1019A000F88E0020FEE7000000244FF4FA7521466F
:1019B000641C03A0FEF734FD284600F0B3FEF6E7F2
:1019C0006164633A2025640D0A0000000248016842
:1019D00081F4806101607047141402400907090E08
:1019E000002804DB00F1E02080F80014704700F0CC
:1019F0000F0000F1E02080F8141D704770470000D0
:101A00000B4910B5094AC1E9002000208860C86070
:101A1000086188610C2048610846FFF751FDBDE868
:101A20001040012203490248FFF7C4BD00100140E5
:101A3000F88E00209C00002010B504460420FFF71B
:101A4000E5FB084804604FF47A7044434FF0E0200F
:101A5000016941F0020101614461016941F0010144
:101A6000016110BD980000200A490120096809B1F0
:101A7000002070470849CA69002AF9D18A69002AFA
:101A8000F6D1044A283212688968491E8A42F0D188
:101A900002207047CC0100201000002003490A6892
:101AA0005206FCD5C2B24A607047000000100140E7
:101AB000FFF796F8FFF7D0FDA820FFF7BDFFFEF770
:101AC000EBFE4FF4E130FFF79BFF03A0FEF7A8FC0D
:101AD000FFF710FEFEE7000048656C6C6F20576F43
:101AE000726C64210D0A00002DE9F041204C0F4674
:101AF0000546E6682168002081F855002068001D31
:101B000000F082FC38B9206890F82C100120884041
:101B1000216981432161681C15D1A7B1154922684B
:101B20004868906023688268DA6022688368121DC2
:101B30005A602268121D8260206841610868401C5A
:101B40000860BDE8F08120683544B54245602168F1
:101B500005D2E06BBDE8F041091D00F07DBCA06B33
:101B6000091D00F079FCA06A8542EAD2A562E8E787
:101B700010000020F40100202DE9F041054600F09E
:101B80008FFC364CA068401CA0602068344F10B118
:101B9000606938B32CE02560A068012828D10026B0
:101BA00006EB860007EB800000F048FC761C0A2E4E
:101BB000F6D32B48C83000F041FC2948DC3000F057
:101BC0003DFC2748F03000F039FC264800F036FC98
:101BD0002448143000F032FC22483C38A063143012
:101BE000E06305E02068E96AC06A884200D82560A1
:101BF000606A401C60622864E96A012022698840AA
:101C00001043206101EB810007EB80004068A86071
:101C10008168E9608268291D51608160E86A00EB93
:101C2000800007EB8001696157F82010491C47F8D4
:101C3000201000F055FC606900280CD02068E96A8B
:101C4000C06A884207D208494FF080500860BFF34D
:101C50004F8FBFF36F8FBDE8F081000010000020B0
:101C6000DC000020E001002004ED00E010B500F0F1
:101C700017FC0C4C206880B90B4800F0DFFB0A48C9
:101C8000143000F0DBFB0848E060143020610022D3
:101C90001021052000F048FF2060BDE8104000F052
:101CA0001FBC0000500000200802002030B4026C6D
:101CB0000B46002A0BD0C1681144C1608468A14260
:101CC00001D30168C16030BC1846FEF725BC30BCAA
:101CD00070472DE9F041856B174604460026026CDB
:101CE00082B1C7B1E068FEF717FCE168206C091A01
:101CF000E1602268914202D2A168081AE060022FD6
:101D000016D017E02068A8B9A06801F08DFA064641
:101D10000020A0600EE06068FEF7FEFB216C6068AA
:101D200008446060A168884204D32068606001E0D4
:101D300005B16D1E6D1CA5633046BDE8F08110B580
:101D40000446006B00F0E0FB2046BDE8104000F0C8
:101D5000DBBB00000A4800210269012A00D90121E9
:101D60000268D26A0AB100207047064A1268012A46
:101D7000F9D80029F7D1816AC068081A70470000B5
:101D800010000020DC0000200E484FF40C414207F8
:101D900006D0C01D0B4920F00700411AC1F50C41C7
:101DA000094A00230144C2E900030839143A21F02A
:101DB000070111604B600B600B1AC0E900139360C0
:101DC0005360704730020020900000201F4C204ECE
:101DD00012E000BF00F064FBF068C568281D00F049
:101DE00013FBA068401EA0606068401E606000F0A9
:101DF00077FB2846FFF7A3FF60680028EAD1154863
:101E00000068012807D914494FF080500860BFF3DB
:101E10004F8FBFF36F8FFFF79DFF0228D7D300F0DE
:101E2000BDFDA06AE168884207D2502080F3118886
:101E3000BFF34F8FBFF36F8FFEE7FFF78BFF0228D3
:101E400001D300F0B7FB01F0BBFAC0E7100000209F
:101E5000E0010020DC00002004ED00E02DE9F04767
:101E60000D46DDE909841746824691009946089E91
:101E7000A522206BFEF795FB6FF00301206B01EBB1
:101E80008701084420F00707780707D0502080F327
:101E90001188BFF34F8FBFF36F8FFEE765B100204E
:101EA0002218295C82F83410295C11B1401C0A28E0
:101EB000F6D3002084F83D000A2E07D3502080F38B
:101EC0001188BFF34F8FBFF36F8FFEE7E662201DCF
:101ED000A66400F0BEFA04F1180000F0BAFA24611A
:101EE000C6F10A006462A0614A465146384600F0D5
:101EF00075FA2060B8F1000F01D0C8F80040BDE8C5
:101F0000F087000030B5114900E011460A688242AE
:101F1000FBD34B685C18844203D140681844486086
:101F2000084643681C18944209D1084C143C2468A4
:101F3000A24209D052681A4442600A6812680260DC
:101F4000814200D0086030BD0460F9E790000020B5
:101F500070B5002441600B4D0061914206D8D11A42
:101F60008269914206D2011D286907E09A4203D294
:101F7000994201D3012403E0011DE86800F06CFAE6
:101F8000204670BD5000002010B5044600F088FACD
:101F9000A06B28B15FF0000400F0A2FA204610BD4B
:101FA0000124F9E7F1B500260098846C5CB1A16BBF
:101FB000E06B81420FD3502080F31188BFF34F8F25
:101FC000BFF36F8FFEE7502080F31188BFF34F8F70
:101FD000BFF36F8FFEE7A16B814212D294F9455097
:101FE000002269462046FFF774FE0646681C0AD0A8
:101FF00000F01EFA854204D27F2D0FD06D1C84F8AC
:1020000045503046F8BD606A0028FAD004F124003B
:1020100001F066F90028F4D00126F2E7502080F3A1
:102020001188BFF34F8FBFF36F8FFEE770B5064681
:102030000D480D46C068C068C468201D00F0E4F972
:1020400094F82800410705D52A463146204600F07D
:10205000BDF803E000F0FE0084F828002046216A65
:10206000BDE87040084700005000002070B586B001
:102070003A4E6AE00098002806DADDE90201019A8A
:1020800090470098002860DB029C606910B1201D19
:1020900000F0BAF904A800F0BBF8054600980A2839
:1020A00053D2DFE800F0520505282E460505282EFC
:1020B00094F828002A4640F0010084F8280001988E
:1020C000A169034601442046FFF742FF40B394F85C
:1020D0002800410707D50198A1692A4601442046F6
:1020E00000F074F803E000F0FE0084F82800216A94
:1020F0002046884729E014F8280F00F0FE002070E1
:1021000023E094F8280040F0010084F828000198AA
:10211000A06130B141192B461A462046FFF718FF3F
:1021200013E0502080F31188BFF34F8FBFF36F8F00
:10213000FEE794F82800810703D4204600F0E4F974
:1021400003E000F0FE0084F82800002269463068B1
:1021500000F0AAFE00288DD106B070BD500000200E
:10216000F8B50D46064600F019FC684600F050F838
:102170000446009810B101F023F9F8BD1148ADB143
:1021800001690968D9B10025311B2A46006800F0B1
:10219000A7FA01F015F90028EFD10B494FF0805054
:1021A0000860BFF34F8FBFF36F8FF8BDA642EBD827
:1021B00001F006F921463046FFF738FFF8BD01254A
:1021C000E2E700005000002004ED00E070B5164684
:1021D0000C46054604E0A869296A04442846884755
:1021E000A8692346011932462846FFF7B1FE0028A8
:1021F000F1D170BD0548816B096821B1816BC96857
:102200000968816270474FF0FF31FAE71000002043
:102210002DE9F041064600F065FF0E4C0546A0682A
:10222000854214D24FF0FF3704E0C0683946006899
:10223000FFF7FCFEE06801680029F6D12169C4E9D6
:102240000310012030602846A560BDE8F081002021
:10225000F8E700005000002008484068401C4FF09C
:10226000500080F3118804D0BFF34F8FBFF36F8FFE
:10227000FEE7BFF34F8FBFF36F8FFEE764000020D0
:10228000074CE068016841B1C0680021D0F8000047
:10229000FFF766FFFFF7EAFEF3E701210020F7E70B
:1022A000500000202DE9F041044600F0F9F894F9BF
:1022B000455004F124060FE0A06C18B12046FFF74A
:1022C00071FE04E0606A48B1304601F009F808B1D7
:1022D00000F0B0FA6D1E6DB2002DEDDC4FF0FF3650
:1022E00084F8456000F0FCF800F0DAF894F9445006
:1022F00004F1100709E0206948B1384600F0F0FF0A
:1023000008B100F097FA6D1E6DB2002DF3DC84F871
:102310004460BDE8F04100F0E3B8000070B5044649
:10232000002600F03BFB2C4D286808B9FFF72CFD78
:102330007CB304F00700C0F11000C1438C423DD8CB
:10234000211800293ADD6868814237D822481430C4
:102350000246146801E02046144662688A4202D2AE
:102360002268002AF7D12A68944227D0066822689A
:10237000026060680836421A102A0FD960184307B5
:1023800008D0502080F31188BFF34F8FBFF36F8FB9
:10239000FEE713E042606160FFF7B4FD61686868C2
:1023A000401A6860AA68904200D2A86041F00040DC
:1023B000606000202060E868401CE86001F000F8E0
:1023C000700707D0502080F31188BFF34F8FBFF301
:1023D0006F8FFEE7304670BD7C00002010B5031FF4
:1023E0004FF080741C601B1F21F001011960191F40
:1023F000044B0B6014390A60091F6FF00202443865
:102400000A6010BD59220008D0E9013201699A60C2
:10241000D0E901235A604A68824201D182684A6049
:10242000002202610868401E0860086870470000CA
:1024300001488068704700001000002000F108018A
:102440004FF0FF32C0E90112C1600161002101605B
:10245000704700210161704730B50B685A1C02D0EB
:1024600000F1080202E0026904E02246546825688F
:102470009D42FAD953684B6099608A605160086147
:102480000168491C016030BD42684A6093688B60F6
:1024900093685960916008610168491C0160704748
:1024A000502080F31188BFF34F8FBFF36F8F0A491D
:1024B0004868401C486001280CD10848006810F0AA
:1024C000FF0F07D0502080F31188BFF34F8FBFF369
:1024D0006F8FFEE7704700006400002004ED00E00D
:1024E0000849486828B1401E486001D180F311882E
:1024F0007047502080F31188BFF34F8FBFF36F8F69
:10250000FEE700006400002070B500282AD0A0F18A
:1025100008046068002807DB502080F31188BFF3AF
:102520004F8FBFF36F8FFEE7216839B1502080F3E2
:102530001188BFF34F8FBFF36F8FFEE720F000408D
:10254000606000F02BFA084D6068696808446860B4
:102550002046FFF7D7FC2869401C2861BDE8704081
:1025600000F02EBF70BD00007C0000200F4810B5A9
:1025700001684FF47A72B1FBF2F30D486FF07F44BB
:102580008360B4FBF3F3C360B1FBF1F35E24B4FBEF
:10259000F3F303614FF0E020002303618361B1FB9B
:1025A000F2F1491E41610721016110BD00000020C8
:1025B000640000202DE9F041324D0446E868844271
:1025C00000D9044672B6BFF34F8FBFF36F8FFFF78A
:1025D0004BFA30B14FF0E02106220A61886918B148
:1025E00003E062B6BDE8F081A868AB68661E03FB35
:1025F0000600254E37687F0103D54FF0007737601E
:10260000C01A2B69984200D9C01A486100238B6117
:102610000E6946F001060E6124B1BFF34F8F30BF43
:10262000BFF36F8F62B6BFF34F8FBFF36F8F72B67A
:10263000BFF34F8FBFF36F8F0A610A69D2030DD5C5
:102640008A692E69801AAA68101A401EB04201D900
:10265000904200D9501E4861601E09E08869AA684E
:102660005443241AB4FBF2F0461C5643321B4A6111
:102670008B6107220A61AA68521E4A6100F058F96C
:10268000AFE700006400002004ED00E010B5FDF7A6
:102690002BFE114910280ED300F1E02090F8F00332
:1026A0000A78904207D2502080F31188BFF34F8FF1
:1026B000BFF36F8FFEE709480068496900F4E060E6
:1026C000884207D9502080F31188BFF34F8FBFF3A2
:1026D0006F8FFEE710BD0000640000200CED00E0ED
:1026E00070B515460E460446FFF7DAFE94F944101D
:1026F0000020491C01D184F8440094F94510491C7C
:1027000001D184F84500FFF7EBFEA06B28B92A46FB
:10271000314604F1240000F0ABF82046BDE87040DB
:10272000FFF7C0BD10B5020014D00F48406B38B1A0
:10273000502080F31188BFF34F8FBFF36F8FFEE7F8
:1027400000F02CF900211046FFF7CEF900F038FE1A
:10275000002807D105494FF080500860BFF34F8F24
:10276000BFF36F8F10BD00001000002004ED00E0EB
:1027700070B50546FFF794FE264C05B92568281D5F
:10278000FFF742FE58B9E86A234A00EB800152F88D
:10279000211021B901218140206988432061A86A64
:1027A00018B105F11800FFF72FFE606A401C606247
:1027B0002068854207D1291D1848FFF765FE60682B
:1027C000401C606004E0A068401EA060FFF712FD9E
:1027D000FFF786FE2068854202D02846FFF7AFFA51
:1027E0006069002814D02068854211D1606B38B12F
:1027F000502080F31188BFF34F8FBFF36F8FFEE738
:1028000007494FF080500860BFF34F8FBFF36F8FC1
:1028100070BD000010000020DC000020E00100205E
:1028200004ED00E002490A6A0260C968416070472D
:102830001000002001490120C861704710000020ED
:1028400010B50C4650B1094909681831FFF704FE6C
:102850002046BDE810400121FFF746B9502080F323
:102860001188BFF34F8FBFF36F8FFEE7100000207A
:10287000F0B40C46D0B1114943680D68EB619D6816
:102880000E6835620D689E68183575600D681835DC
:102890009D60096888620168491C01600AB14FF0B7
:1028A000FF342046F0BC1146FFF71EB9502080F3DC
:1028B0001188BFF34F8FBFF36F8FFEE7100000202A
:1028C0007CB517480025CDE900502B46822215A182
:1028D000164800F0CBFB124C2C3C012803D100F031
:1028E00037FE012802D0401C11D00EE0502080F3AA
:1028F0001188BFF34F8FBFF36F8F4FF0FF30A0628F
:1029000001206061E56000F07FF8206B7CBD502005
:1029100080F31188BFF34F8FBFF36F8FFEE7000086
:102920003C00002049444C4500000000CD1D00083B
:1029300070B5194C0546E068A16A2844884207D959
:10294000502080F31188BFF34F8FBFF36F8FFEE7E6
:10295000E068A16A284488420AD1606B60B19DB1E9
:10296000FFF79EFDA069401CA061FFF7B9FD6D1E39
:10297000E0682844E06070BD502080F31188BFF308
:102980004F8FBFF36F8FFEE7502080F31188BFF3A6
:102990004F8FBFF36F8FFEE7100000200248416B9E
:1029A000491C416370470000100000201448416B2F
:1029B00011B10121C16170470021C1610169B1FA02
:1029C00081F1C1F11F0101EB81020E4951F8223062
:1029D0006BB101EB820101F108034A6852684A6059
:1029E0009A4201D152684A60D16801607047502014
:1029F00080F31188BFF34F8FBFF36F8FFEE70000A6
:102A000010000020DC0000201CB537480168374A60
:102A1000914207D1502080F31188BFF34F8FBFF34D
:102A20006F8FFEE700683149491E884207D1502068
:102A300080F31188BFF34F8FBFF36F8FFEE72C49F0
:102A400008780190FF20087008788DF800009DF844
:102A500000009DF8002000F0F000904207D05020C8
:102A600080F31188BFF34F8FBFF36F8FFEE79DF8A0
:102A70000000204C00F0500020700720606105E04D
:102A80009DF8002052008DF80020401E9DF8002087
:102A90001206F5D46061032807D0502080F3118816
:102AA000BFF34F8FBFF36F8FFEE74FF4407060614D
:102AB000019808700C482030016841F470010160F1
:102AC000016841F070410160FFF750FD0020606037
:102AD000FDF7D2FB0848016841F040410160FDF775
:102AE000B7FB00201CBD000000ED00E071C20F41EB
:102AF00000E400E06400002034EF00E010B5502056
:102B000080F31188BFF34F8FBFF36F8F00F0F0FA9F
:102B100018B104494FF080500860002080F31188FC
:102B200010BD000004ED00E02DE9F04117460E460F
:102B3000050022D04FF0FF30B0FBF5F0B0421CD3BF
:102B400005FB06F010F1550F17D85430FFF7E6FBE0
:102B500004000ED004F154006EB12060C4E90F5699
:102B60002046012100F012F884F850700021204620
:102B7000A164BDE8F0812460F0E7502080F3118863
:102B8000BFF34F8FBFF36F8FFEE700002DE9F041D9
:102B90000F4604004FF001062DD0E06B98B3B51E30
:102BA000B5FBF0F1206C81423ED3FFF779FCD4E90C
:102BB0000F20216802FB0011A1600021A1632168A0
:102BC00061600A46D4E90F01401E00FB0121204646
:102BD000E16000F8445F457004F11000A7B1FFF711
:102BE0002DFC04F12400FFF729FC00BFFFF778FC5F
:102BF0003046BDE8F081502080F31188BFF34F8F3D
:102C0000BFF36F8FFEE70FE021690029EED000F0DF
:102C100067FB0028EAD008494FF080500860BFF3F6
:102C20004F8FBFF36F8FE1E7502080F31188BFF320
:102C30004F8FBFF36F8FFEE704ED00E02DE9FF47F4
:102C400082B01D468A464FF00008040003D0BAF156
:102C5000000F08D011E0502080F31188BFF34F8F90
:102C6000BFF36F8FFEE7206C38B1502080F31188DE
:102C7000BFF34F8FBFF36F8FFEE7022D0AD1E06BDA
:102C8000012807D0502080F31188BFF34F8FBFF386
:102C90006F8FFEE700F018FA454F4FF000094FF034
:102CA000805648B9049838B1502080F31188BFF39A
:102CB0004F8FBFF36F8FFEE7FFF7F2FBA06BE16B67
:102CC000884207D3022D05D0049838B3B8F1000F1D
:102CD00027D02BE0D4F838802A4651462046FEF70C
:102CE000F8FFA16C41B1022D02D1B8F1000F0FD154
:102CF0002046FFF757F905E0616A19B104F1240095
:102D000000F0EEFA20B13E60BFF34F8FBFF36F8F3C
:102D1000FFF7E6FB012006B0BDE8F087FFF7E0FB18
:102D200022E06846FFF77EFD4FF00108FFF7D8FB71
:102D3000FFF734FEFFF7B4FB94F94400401C01D1C7
:102D400084F8449094F94500401C01D184F84590E2
:102D5000FFF7C6FB04A9684600F042F930B12046EF
:102D6000FFF7A0FA00F02CFB0020D4E7FFF798FB58
:102D7000A06BE16B884213D1FFF7B2FB04F11000A6
:102D80000499FFF75DFD2046FFF78CFA00F018FB71
:102D9000002891D13E60BFF34F8FBFF36F8F8BE759
:102DA000FFF79EFB2046FFF77DFA00F009FB83E763
:102DB00004ED00E02DE9F0471F4616468A46040060
:102DC00003D0BAF1000F08D011E0502080F3118831
:102DD000BFF34F8FBFF36F8FFEE7206C38B15020E9
:102DE00080F31188BFF34F8FBFF36F8FFEE7022F81
:102DF0000AD1E06B012807D0502080F31188BFF37F
:102E00004F8FBFF36F8FFEE7FFF740FC5021EFF3CA
:102E1000118081F31188BFF34F8FBFF36F8F80460E
:102E2000A06BE16B884207D3022F05D05FF0000052
:102E300088F31188BDE8F08794F94550D4F83890AC
:102E40003A4651462046FEF744FF681C0AD0FFF779
:102E5000EFFA854204D27F2D1DD06D1C84F84550B9
:102E60000120E5E7A06C012540B1022F02D1B9F1A4
:102E7000000FF5D12046FFF795F806E0606A0028BC
:102E8000EED004F1240000F02BFA0028E8D0002E48
:102E9000E6D03560E4E7502080F31188BFF34F8F10
:102EA000BFF36F8FFEE700002DE9F747002683B0E0
:102EB0008A46040003D0BAF1000F08D011E0502078
:102EC00080F31188BFF34F8FBFF36F8FFEE7206C45
:102ED00038B1502080F31188BFF34F8FBFF36F8F4D
:102EE000FEE700F0F1F8DFF8F4804FF000094FF052
:102EF000805748B9059838B1502080F31188BFF346
:102F00004F8FBFF36F8FFEE7FFF7CAFAA56BC5B10E
:102F100051462046FEF7CAFE6D1EA563206950B1DA
:102F200004F1100000F0DCF928B1C8F80070BFF31C
:102F30004F8FBFF36F8FFFF7D3FA012006B0BDE8C4
:102F4000F087059808B11EB106E0FFF7C9FA27E03F
:102F50006846FFF767FC0126FFF7C2FAFFF71EFD80
:102F6000FFF79EFA94F94400401C01D184F8449084
:102F700094F94500401C01D184F84590FFF7B0FA60
:102F800005A9684600F02CF8002820460AD0FFF773
:102F900089F900F015FA2046FEF7F6FF0028B3D0B5
:102FA0000020CBE7FEF7F0FF90B104F12400059973
:102FB000FFF746FC2046FFF775F900F001FA0028FC
:102FC000A2D1C8F80070BFF34F8FBFF36F8F9BE79C
:102FD0002046FFF767F900F0F3F995E704ED00E00C
:102FE0002DE9F0410C4605000FD0B4B1FFF758FAB7
:102FF0001D49CA686F680868D31B002690F8550001
:1030000098B1086880F8556028E0502080F3118856
:10301000BFF34F8FBFF36F8FFEE7502080F311880F
:10302000BFF34F8FBFF36F8FFEE72068B0F1FF3F14
:1030300009D0D5F800C0096A8C4506D0974204D85B
:10304000012526600BE0002509E0984205D9C01A49
:1030500020602846FFF7E6FBF5E726600125FFF72D
:103060003FFA2846BDE8F081100000202DE9FF5FFF
:103070008346DDE90E87994616468A469000FFF79B
:103080004DF905001DD05820FFF748F9040015D070
:103090005821FDF7B0FA25630021CDE90241CDE9C1
:1030A00000874B46324651465846FEF7D7FE20462B
:1030B000FEF762FD012004B0BDE8F09F2846FFF74F
:1030C00023FA4FF0FF30F6E70548416919B1406B2C
:1030D00018B100207047012070470220704700009F
:1030E000100000200148C068704700001000002058
:1030F0002DE9F0414A4C0026606B28B1A069401CC4
:10310000A0613046BDE8F081E5686D1CE56013D133
:10311000A06B006838B1502080F31188BFF34F8F47
:10312000BFF36F8FFEE7A06BE16BA163E063206AE2
:10313000401C2062FFF75EF8A16A3A488D420FD327
:103140004FF0000EA16B096839B1A16BC968C9685D
:103150004A68954212D2A26202E04FF0FF31A162AA
:103160002168C96A01EB810150F82100012800D9CA
:103170000126E0690028C4D00126C2E7D1E9027225
:103180004B69BA60D1E902277A605F680A1D9742ED
:1031900001D1CF685F60C1F814E01F687F1E1F6017
:1031A000D1F828C0BCF1000F15D0D1E907379F60D6
:1031B000D1E907377B60DCF8047001F118039F4206
:1031C00002D10B6ACCF80430C1F828E0DCF80030FA
:1031D0005B1ECCF80030CB6A0127D4F810C09F40AA
:1031E00047EA0C07276103EB830300EB83035B686B
:1031F0008B609F68CF609F687A609A60CA6A02EBB2
:10320000820200EB82034B6150F822305B1C40F8D5
:103210002230C96A2268D26A914293D9012691E785
:1032200010000020DC00002070B504004FF0000109
:103230004FD0294D2868844207D0502080F3118850
:10324000BFF34F8FBFF36F8FFEE7E06C38B1401EC6
:10325000E064A36CE26A9A423BD040B139E050206E
:1032600080F31188BFF34F8FBFF36F8FFEE7201DF0
:10327000FFF7CAF8012130B994F82C002A6901FA45
:1032800000F082432A61A06CE062C0F10A00A061F4
:10329000E06A2A69814011432961104900EB8000EE
:1032A00001EB80004068A0608268E2608368221DB4
:1032B0005A608260E06A00EB800001EB8000606190
:1032C000E06A00EB800051F82020521C41F82020D9
:1032D0000121084670BD000010000020DC00002025
:1032E00070B5C068C46854B3D4E90721A06A91607E
:1032F000D4E907125160426804F118018A4201D1F1
:10330000226A42600022A26203685B1E03602A4DAB
:10331000686B0126D8B1294A5068E061836823624E
:10332000836859608160A2621068401C1060E06A86
:103330002968C96A88423CD90120EE6170BD5020DD
:1033400080F31188BFF34F8FBFF36F8FFEE7D4E98F
:10335000023160699960D4E9021359604368211D04
:103360008B4201D1E368436062610268521E0260D1
:10337000E06A2B6906FA00F21A432A610F4A00EB51
:103380008000F03A02EB80004068A0608368E36050
:10339000836859608160E06A00EB800002EB800185
:1033A000616152F82010491C42F82010FEF722FFFC
:1033B000BDE7002070BD000010000020CC010020FF
:1033C0002DE9F041464D00242746686B38B1FFF7E0
:1033D00067F8686B401E6863686B40B17AE0502004
:1033E00080F31188BFF34F8FBFF36F8FFEE7A8689C
:1033F0003C4B00264FF00108F0BB6BE0D868C46876
:10340000D4E90721A06A9160D4E9071251604268AB
:1034100004F118018A4201D1216A4160A662016863
:10342000491E0160D4E9022160699160D4E9021269
:1034300051604268211D8A4201D1E26842606661A2
:103440000268521E0260E26AD5F810C008FA02F063
:1034500040EA0C00286102EB8200224AF03A02EBBB
:1034600080004068A060D0F808C0C4F80CC0D0F854
:1034700008C0CCF8041000E012E08160E06A00EBC4
:10348000800002EB8001616152F82010491C42F873
:103490002010E06A2968C96A884201D3C5F81C80F7
:1034A00018680028AAD10CB1FEF7A4FEAC693CB1A3
:1034B000FFF71EFE08B1C5F81C80641EF8D1AE618E
:1034C000E86938B10849012738070860BFF34F8F12
:1034D000BFF36F8FFFF704F83846BDE8F0810000B6
:1034E00010000020CC01002004ED00E02DE9F047A1
:1034F0000746994616460D462C20DDF820A0FEF71B
:103500000DFF040018D0B84600204F4684F828006C
:10351000D146A5B1FEF7AAFB04F11801C4F800805A
:1035200081E8A002201DFEF794FF2EB194F8280038
:1035300040F0040184F828102046BDE8F0875020B0
:1035400080F31188BFF34F8FBFF36F8FFEE700004A
:103550001CB5FEF78BFB0D48006868B10B490220D3
:10356000091DCDE9000100234FF4827208A10A4829
:10357000FFF77CFD002807D1502080F31188BFF3AE
:103580004F8FBFF36F8FFEE71CBD0000500000207F
:10359000546D722053766300812200082DE9FF41AB
:1035A0001E46134602000A9D4FF0000016D0144C30
:1035B0002768002F0FD0CDE900130292062917DAF1
:1035C000FFF782FD02284FF000030FD0002269466A
:1035D0002068FFF733FB04B0BDE8F081502080F392
:1035E0001188BFF34F8FBFF36F8FFEE72A46EEE7D8
:1035F0000023324669463846FFF7DCFBEBE7000064
:10360000500000204FF04070E1EE100A70470000BB
:103610000000000000000102030406070809000082
:1036200000000102030400005761746368446F677F
:103630000000000055534152545F5461736B000009
:103640006036000800000020DC000000C401000813
:103650003C370008DC000020C4980000E0010008AE
:103660000024F40001000000100000000000000031
:10367000000000000000000000000000000000004A
:10368000000000000000000000000000000000003A
:10369000000000000000000000000000000000002A
:1036A0000900000000000000000000000000000011
:1036B000000000000000000000000000000000000A
:1036C0000000000000000000AAAAAAAA0000000052
:1036D00000000000000000000000000000000000EA
:1036E00000000000000000000000000000000000DA
:1036F00000000000000000000000000000000000CA
:103700000000000000000000A9190008343600087D
:103710008000000000000000050000000000000024
:103720000000000028360008F4010000010000003D
:0C37300001000000CD190008000000009E
:040000050800018965
:00000001FF
